S0180000494C49393358585F4558414D504C45322E7372656375
S214400000E83D0020852240004D2340004D2340001F
S2144000104D2340004D2340004D234000000000008B
S2144000200000000000000000000000004D234000DB
S2144000304D234000000000004D2340004D2340006B
S2144000404D2340004D2340004D2340004D234000AB
S2144000504D2340004D2340004D2340004D2340009B
S2144000604D2340004D23400000000000ED1B4000A3
S214400070051C40001D1C40004D2340004D23400001
S21440008000000000000000004D2340004D234000CB
S2144000904D2340004D2340004D234000CD2B4000D3
S2144000A04D2340004D2340004D2340004D2340004B
S2144000B04D2340004D2340004D2340004D2340003B
S2144000C04D2340004D2340004D23400010B5054CC5
S2144000D0237833B9044B13B10448AFF300800123AF
S2144000E0237010BD8408002000000000D488400023
S2144000F0084B10B51BB108480849AFF300800848C4
S214400100036803B910BD074B002BFBD0BDE8104079
S214400110184700BF00000000D48840008808002030
S214400120D48840000000000080B487B000AFF8607C
S214400130B9607A60BB689B01FA6813447B617B694F
S21440014002221A607B694FF0FF329A627B691B6A13
S2144001507B697A685A601C37BD465DF8047B7047F9
S21440016080B483B000AF786039607A683B689B01A2
S214400170134405221A600C37BD465DF8047B704771
S21440018080B485B000AFF860B9607A60FA68BB6842
S2144001909B01134418337A685A601437BD465DF89D
S2144001A0047B704780B487B000AFF860B9607A606F
S2144001B0BB689B01FA6813447B617B697A685A6224
S2144001C01C37BD465DF8047B704700BF80B485B0E1
S2144001D000AF786039603B689B017A681344FB60E7
S2144001E0FB681B6A18461437BD465DF8047B7047AB
S2144001F080B582B000AF78607B68072B30D801A20C
S21440020052F823F061024000250240002D024000D3
S214400210350240003D024000450240004D0240008D
S214400220570240000020104B984719E001200E4B23
S214400230984715E000200D4B984711E010200B4BD7
S21440024098470DE02020094B984709E000203E21C2
S214400250074B984704E001203E21054B984700BFD6
S2144002600837BD4680BD00BFB91C4000251D400074
S214400270951D400080B582B000AF78607B68072B44
S21440028026D801A252F823F0A9024000AD02400051
S214400290AD024000BF024000BF024000BF02400027
S2144002A0BF024000BF024000012312E00B4B9847BC
S2144002B00346002B14BF01230023DBB209E0084BA2
S2144002C098470346002B14BF01230023DBB200E00F
S2144002D0002318460837BD4680BD00BFF11C4000CD
S2144002E00D1E400080B483B000AF78607B68072B5B
S2144002F025D801A252F823F0190340001F034000FE
S214400300250340002B0340002F03400033034000EA
S214400310370340003B0340004FF4FA4310E04FF4ED
S21440032000430DE04FF400430AE0084B08E0084B5A
S21440033006E0084B04E0074B02E0064B00E00023D3
S21440034018460C37BD465DF8047B704700093D00F3
S21440035000127A00001BB70080B582B000AF03469B
S214400360FB7100BFFB791846054B9847034683F060
S2144003700103DBB2002BF5D10837BD4680BD00BF78
S2144003807502400080B586B000AFF8607A603B608A
S2144003900B46FB72FB7A18460D4B984702467B6825
S2144003A0B2FBF3F37B617B693A6802FB03F37B6144
S2144003B03B68013B1A04074B13407A68D2B213439A
S2144003C043F47C52FB681A601837BD4680BD00BFB8
S2144003D0E50240000000FF0780B582B000AF7860BD
S2144003E039603B68002B08D1084B9847084A7B6821
S2144003F01B6843F00053936205E0064B9847044A57
S2144004007B681B68D3620837BD4680BD291E400006
S21440041000040E405D1E400080B582B000AF78609C
S2144004207B68002B03D1054B9847034602E0044BFC
S2144004309847034618460837BD4680BD411E4000D3
S214400440751E400080B582B000AF0346FB71FB7955
S214400450033B042B08D8FB791846054B9847FB7995
S2144004601846044B984700E000BF0837BD4680BD9D
S214400470F10140005903400080B582B000AF78607B
S21440048000BF7868044B98470346002BF9D00023FA
S21440049018460837BD4680BD1904400080B500AFF9
S2144004A00620044B9847024613469B0013449B0085
S2144004B0184680BDE502400080B500AF024B984725
S2144004C003465B08184680BD9D04400090B583B047
S2144004D000AF1148114B98470620114B98473B1DDB
S2144004E018460621012214230E4CA0473B1D1846F1
S2144004F000210D4B984700200C4B984710200C4B82
S21440050098470C4B98470C4B984703461846034B66
S21440051098470C37BD4690BD000E2707F124400093
S2144005204504400085034000D9034000790440005C
S214400530351C400055234000B904400080B586B0C5
S21440054000AFF860B9607A6000237B61FB68002BDF
S21440055002D04FF0FF3314E00FE00C4B1B680C4A00
S21440056012681046B9689847BB680133BB607B6920
S21440057001337B617B68013B7B607B68002BECDC56
S2144005807B6918461837BD4680BD00BF200D002049
S214400590280D002080B586B000AFF860B9607A605C
S2144005A000237B61FB68012B08D0FB68022B05D03B
S2144005B0FB68032B02D04FF0FF331AE015E00F4BD9
S2144005C01A680F4B1868BB68591CB9601B781946E7
S2144005D090470346002B02DA4FF0FF3309E07B6971
S2144005E001337B617B68013B7B607B68002BE6D1F7
S2144005F07B6918461837BD4680BD00BF240D0020D5
S214400600280D002080B582B000AF78607868024B35
S21440061098470837BD4680BD911E400080B500AF64
S2144006200B20044B98470C20024B98470D20014B5B
S214400630984780BD0506400080B500AF2A4B4FF472
S21440064000425A60294B984713204FF06051284B80
S214400650984714204FF06051254B98472320254952
S214400660234B98474C202449214B984723484FF426
S214400670C0614FF00062224B9847402021491C4BF6
S214400680984741201F491A4B984742201D49184B0E
S214400690984743201B49164B984744201949144B0A
S2144006A0984745201749124B984746201549104B06
S2144006B09847472013490E4B98474B2011490C4BFF
S2144006C0984748200F490A4B98474F200D49084BFA
S2144006D0984753200B49064B98474D204FF04051C2
S2144006E0034B984780BD00BF50140E401D06400087
S2144006F0AD1740007900002859000028000E0E4033
S214400700651940000100000880B48BB000AF7860E7
S2144007100B46FB707B687B62FB7887F823307B6AEE
S214400720FB61FB69BB61BB695B097B617B6903F568
S214400730001303F207735B023B6197F82330002BEC
S21440074009D07B6AFB60FB6803F01F0301229A40D6
S2144007503B691A6308E07B6ABB60BB6803F01F0313
S21440076001229A403B695A632C37BD465DF8047BAC
S214400770704700BF80B584B000AF78607B68C3F137
S21440078011037B607B68102B28BF10237B607B683F
S214400790002B01D07B6800E001237B600023FB60D8
S2144007A01AE04D200021144B98471823BB6000BF29
S2144007B0BB685A1EBA60002BFAD14D2001210E4B61
S2144007C098471823BB6000BFBB685A1EBA60002B10
S2144007D0FAD1FB680133FB60FA687B689A42E0D343
S2144007E04FF40033BB6000BFBB685A1EBA60002B94
S2144007F0FAD11037BD4680BD0907400080B582B0AB
S21440080000AF4D200021074B98474FF400337B60E4
S21440081000BF7B685A1E7A60002BFAD10837BD4667
S21440082080BD00BF0907400080B483B000AF0346D8
S214400830FB714FF0C242FB7913700C37BD465DF832
S214400840047B704780B483B000AF0346FB71044A14
S214400850FB7913700C37BD465DF8047B704700BFCC
S2144008600200006180B400AF034B1B78DBB2184631
S214400870BD465DF8047B70470200006180B500AF5E
S2144008800C4B1B78012B06D100200B4B984722209F
S214400890094B98470CE0074B1B78022B08D12C20BD
S2144008A0054B98470020044B98473C20024B9847FE
S2144008B080BD00BFA00800202908400080B582B057
S2144008C000AF78607B681B0CDBB21846074B984736
S2144008D07B681B0ADBB21846044B98477B68DBB242
S2144008E01846024B98470837BD4680BD450840002D
S2144008F080B584B000AF786039600023FB6049E083
S214400900FB689B007A6813441B6818462E4B984732
S214400910FB6801339B007A6813441B6818462A4BD1
S2144009209847FB6802339B007A6813441B68184656
S214400930254B9847FB6803339B007A6813441B6833
S2144009401846214B9847FB6804339B007A6813444B
S2144009501B6818461C4B9847FB6805339B007A6813
S21440096013441B681846184B9847FB6806339B0091
S2144009707A6813441B681846134B9847FB6807333E
S2144009809B007A6813441B6818460F4B9847FB68D1
S2144009900833FB603B6823F00702FB689A42AFD8F7
S2144009A00AE0FB689B007A6813441B681846064BAF
S2144009B09847FB680133FB60FA683B689A42F0D37D
S2144009C01037BD4680BD00BFBD08400080B582B030
S2144009D000AF03460A46FB711346BB8000200A4B15
S2144009E09847FB791846084B9847BB881B0A9BB22A
S2144009F0DBB21846054B9847BB88DBB21846034B1C
S214400A0098470837BD4680BD290840004508400045
S214400A1080B584B000AF03463960FB711346BB71A6
S214400A2000200D4B9847FB7918460B4B9847002300
S214400A30FB7309E0FB7B3A6813441B781846074B68
S214400A409847FB7B0133FB73FA7BBB799A42F1D321
S214400A501037BD4680BD00BF29084000450840000D
S214400A6090B585B000AF03463960FB711346BB7145
S214400A7000200D4B9847FB7918460B4B98470023B0
S214400A80FB7309E0FB7B3A68D418084B984703464B
S214400A902370FB7B0133FB73FA7BBB799A42F1D31D
S214400AA01437BD4690BD00BF290840006508400089
S214400AB080B485B000AF78600023FB600CE0002374
S214400AC0FB6002E0FB680133FB60FB68074A934229
S214400AD0F8D9FB680133FB60FA687B689A42EED32C
S214400AE01437BD465DF8047B704700BF9F86010003
S214400AF080B487B000AFF860B9607A603B60FB684E
S214400B001A68274B1B689A4204D3254B1B685A1E0B
S214400B10FB681A607B681A68214B1B689A4204D3AC
S214400B201F4B1B685A1E7B681A60BB681A681D4BB1
S214400B301B689A4204D31B4B1B685A1EBB681A603C
S214400B403B681A68174B1B689A4204D3154B1B68C0
S214400B505A1E3B681A60FB681A687B681B689A4294
S214400B6009D9FB681B687B617B681A68FB681A605A
S214400B707B687A691A60BB681A683B681B689A4249
S214400B8009D9BB681B687B613B681A68BB681A60FA
S214400B903B687A691A601C37BD465DF8047B70472F
S214400BA0000000200400002080B582B000AF3B4625
S214400BB0D32019460422184B9847BB789BB21B0299
S214400BC09AB2FB789BB21344FB80FB8849F24132D1
S214400BD0934204D1114B02221A70002318E03B4680
S214400BE00020194602220C4B98473B789BB21B02CA
S214400BF09AB27B789BB21344FB80FB8849F225323D
S214400C00934204D1054B01221A70002300E00123D1
S214400C1018460837BD4680BD610A4000A00800203F
S214400C2090B585B000AF78607A4B98470346002B66
S214400C3001D00123ADE1784BF0221A60774B4FF498
S214400C40A0721A60764B1B78012B40F0F580072087
S214400C503321744B984710200021724B9847002050
S214400C600121704B984701204FF480716D4B984797
S214400C7002204FF4E0616B4B984704200021694BFB
S214400C809847082040F20721664B984709200021E4
S214400C90644B98470A200021624B98470C2000215D
S214400CA0604B98470D2000215E4B98470F2000214F
S214400CB05C4B9847102000215A4B98471120002142
S214400CC0584B984712200021564B98471320002136
S214400CD0544B9847C820544B9847102041F29021D7
S214400CE0504B9847112040F227214E4B98473220D0
S214400CF04D4B984712201B214A4B984732204A4B6F
S214400D00984713204FF48851464B9847292019217D
S214400D10444B98472B200D21424B98473220424B5C
S214400D209847302000213F4B984731204FF40171BF
S214400D303C4B984732204FF400713A4B9847352049
S214400D400721384B9847362041F20441354B9847A7
S214400D50372040F20571334B9847382040F2053132
S214400D60304B9847392040F207712E4B98473C202D
S214400D7040F201712B4B98473D200E21294B984756
S214400D8003204DF21001274B984760204FF427412F
S214400D90244B984761200121224B98476A20002126
S214400DA0204B9847802000211E4B984781200021E9
S214400DB01C4B9847822000211A4B984783200021DD
S214400DC0184B984784200021164B984785200021D1
S214400DD0144B984790201021124B984792204FF47E
S214400DE0C061104B984795204FF488710D4B98473B
S214400DF07B681A687B685B68002000210B4CA04724
S214400E007B689B6818460A4B984700200021094B90
S214400E109847BDE0A90B40000000002004000020D9
S214400E20A0080020CD094000B10A40001D10400037
S214400E30E90F400011114000584B1B78022B40F040
S214400E40A58039233B722C237B720023BB7234234C
S214400E50FB7202233B7307F10803CB201946052299
S214400E604F4B984700233B72AA237B72B023BB723A
S214400E7007F10803CF2019460322494B98473023F1
S214400E803B7207F10803F72019460122444B984766
S214400E9025233B7207F10803C02019460122404B28
S214400EA0984711233B7207F10803C12019460122D7
S214400EB03B4B98475C233B724C237B7207F10803FD
S214400EC0C52019460222364B984794233B7207F1B9
S214400ED00803C72019460122314B984785233B72A9
S214400EE001237B727823BB7207F10803E82019467A
S214400EF003222B4B984700233B7200237B7207F15B
S214400F000803EA2019460222254B984748233B729D
S214400F1007F10803362019460122214B984706233D
S214400F203B7207F108033A20194601221C4B9847AA
S214400F3002233B7282237B722723BB720023FB7201
S214400F4007F10803B62019460422154B98477B68DC
S214400F501A687B685B6800200021124CA0477B68BB
S214400F609B681846104B984707F10803112019460E
S214400F7000220B4B98470A200C4B984707F1080372
S214400F80292019460022064B984701E0012300E03D
S214400F90002318461437BD4690BD00BFA008002069
S214400FA0110A40001D104000E90F4000B10A400001
S214400FB080B500AF094B1B78012B05D1072040F2C6
S214400FC03311074B984708E0044B1B78022B04D19B
S214400FD0292000210022034B984780BDA00800200E
S214400FE0CD094000110A400080B485B000AF78605B
S214400FF00023FB6007E00849FB687A6841F8232035
S214401000FB680133FB60FB68EF2BF4D91437BD4611
S2144010105DF8047B704700BFA408002080B586B00A
S21440102000AFF860B9607A603B60364B1B78012BA6
S21440103024D1FB689BB250201946334B9847FB6837
S2144010409AB27B689BB213449BB2013B9BB2512041
S21440105019462D4B9847BB689BB2522019462A4BDF
S2144010609847BB689AB23B689BB213449BB2013B1D
S2144010709BB253201946244B98473FE0214B1B78A0
S214401080022B3BD1FB681B0ADBB23B75FB68DBB22D
S2144010907B75FA687B681344013B1B0ADBB2BB7561
S2144010A0FB68DAB27B68DBB21344DBB2013BDBB2EF
S2144010B0FB7507F114032A2019460422134B984760
S2144010C0BB681B0ADBB23B75BB68DBB27B75BA6894
S2144010D03B681344013B1B0ADBB2BB75BB68DAB204
S2144010E03B68DBB21344DBB2013BDBB2FB7507F176
S2144010F014032B2019460422044B98471837BD4644
S21440110080BD00BFA0080020CD094000110A400065
S21440111080B582B000AF03460A46FB801346BB80CC
S214401120084B1B78012B09D1FB8820201946064B1B
S2144011309847BB8821201946034B98470837BD4639
S21440114080BD00BFA0080020CD09400090B583B008
S21440115000AF786039601B4B1B687A689A4204D2AD
S214401160194B1B683A689A4201D3012325E0174B76
S2144011701B78012B0FD17B689AB23B689BB2104616
S2144011801946134B9847134B9847134B1B68184602
S214401190124B984710E00D4B1B78022B0CD1786809
S2144011A03968002200230E4CA0470A4B98470A4B4A
S2144011B01B681846094B9847002318460C37BD460F
S2144011C090BD00BF0000002004000020A0080020C2
S2144011D0111140007D084000A4080020BD084000D2
S2144011E01D10400090B587B000AFF860B9607A60D7
S2144011F03B6007F10C0007F108013A1D3B46264CC0
S214401200A047F868B9687A68FB68D31A5C1C3A68E5
S214401210BB68D31A01332246204CA047FB689AB2DB
S214401220BB689BB2104619461D4B98471D4B9847C6
S2144012307A68FB68D31A01333968BA688A1A013269
S21440124002FB03F33B613B69174AA2FB0323DB091E
S2144012507B6103E01548F021154B98477B695A1E81
S2144012607A61002BF6D139690F4BA3FB0123DA09CB
S21440127013461B019B1A1B01CA1A0C4811460C4BFD
S21440128098470C4B1A680C4B1B6800200021034CF7
S214401290A0471C37BD4690BDF10A40001D104000D7
S2144012A0111140007D08400089888888A4080020E5
S2144012B0F1084000000000200400002080B58AB0FD
S2144012C000AFF860B9601346FB71FA7913469B008D
S2144012D013449B00A3F52073FB6100233B624DE063
S2144012E03B6A5A00FB691344BB61BB6901337B61AF
S2144012F000237B621AE0244ABB6913441B781A46D3
S2144013007B6AC3F1070342FA03F303F00103002BA1
S21440131009D0FA683B6AD118BA687B6A1344084613
S21440132019461A4B98477B6A01337B627B6A072BC8
S214401330E1D900237B621BE0134A7B6913441B7888
S2144013401A467B6AC3F1070342FA03F303F001032C
S214401350002B0AD0FA683B6AD118BA687B6A1344F5
S214401360083308461946094B98477B6A01337B6227
S2144013707B6A052BE0D93B6A01333B623B6A092B0B
S214401380AED92837BD4680BD6C7F40004D11400029
S21440139080B586B000AFF860B9607A60FB687B6164
S2144013A01CE07B681B780A2B08D10E231A46BB68C4
S2144013B013440233BB607B69FB600CE07B681B78A0
S2144013C0F868B9681A46094B98470A231A46FB68D4
S2144013D013440233FB607B6801337B607B681B7879
S2144013E0002BDED11837BD4680BD00BFBD12400081
S2144013F080B485B000AFF860B9607A60FA68BB68C0
S2144014001B0113447A681A601437BD465DF8047BA6
S214401410704700BF80B485B000AFF860B9607A60AE
S214401420FA68BB681B0113447A685A601437BD4695
S2144014305DF8047B704700BF80B485B000AFF860AD
S214401440B9607A60FA68BB681B01134408337A684F
S2144014501A601437BD465DF8047B704780B485B08B
S21440146000AFF860B9607A60FA68BB681B01134445
S21440147008337A685A601437BD465DF8047B704777
S21440148080B485B000AFF860B9607A607B68002BA6
S21440149003D0FB68BA685A6602E0FB68BA681A6608
S2144014A01437BD465DF8047B704700BF80B485B0F6
S2144014B000AFF860B9607A60FB68BA68C3F8842009
S2144014C07B685B004FF40042B2FBF3F3013BC3F38F
S2144014D00D02FB68C3F88C201437BD465DF8047BCC
S2144014E0704700BF80B487B000AFF860B9607A60DC
S2144014F0FB687A685A64BB68B3F1C05F4AD0B3F100
S214401500C05F08D8B3F1006F16D0B3F1805F2CD01F
S214401510002B69D064E0B3F1205F65D0B3F1205F63
S21440152003D8B3F1005F4AD05AE0B3F1405F5BD0D6
S214401530B3F1605F58D053E0FB681B6F7B61FB687C
S2144015401A6F7B68D9437B690B401A40FB681A6761
S214401550FB685B6F7B61FB685A6F7B68D9437B692E
S2144015600B401A40FB685A673AE0FB681B6F7B618A
S2144015707A687B691A43FB681A67FB685B6F7B6116
S214401580FB685A6F7B68D9437B690B401A40FB68FF
S2144015905A6725E0FB681B6F7B61FB681A6F7B68A8
S2144015A0D9437B690B401A40FB681A67FB685B6F40
S2144015B07B617A687B691A43FB685A6710E0FB6870
S2144015C01B6F7B617A687B691A43FB681A67FB6806
S2144015D05B6F7B617A687B691A43FB685A6700BF1A
S2144015E0FB687A685A6000E000BF1C37BD465DF86D
S2144015F0047B704780B584B000AFF860B9607A600D
S214401600F868B968184B98477B6803F00103F86898
S214401610B9681A46154B98477B6803F00A03002BB7
S21440162003D0FB68BA681A6202E0FB68BA685A627E
S2144016307B6803F00203002B04D0FB68BA68C3F84B
S214401640802008E07B6803F00803002B03D0FB688B
S214401650BA68C3F88420FB68BA685A61FB68BA68FF
S2144016601A601037BD4680BD6117400081144000A7
S21440167080B584B000AFF860B9607A603B60F868C7
S214401680B968124B9847F868B968BA69104B9847DA
S2144016903B68002B03D0FB68BA681A6502E0FB681B
S2144016A0BA685A657B68002B03D0FB68BA681A6331
S2144016B002E0FB68BA685A63FB68BA681A61FB685E
S2144016C0BA681A601037BD4680BD00BF611740003B
S2144016D08114400080B485B000AFF860B9607A608D
S2144016E07B6803F01003002B20D0FB68BA68C3F871
S2144016F0B0207B6803F02003002B04D0FB68BA6858
S214401700C3F8D42003E0FB68BA68C3F8D0207B68EF
S21440171003F04003002B04D0FB68BA68C3F8C0202F
S21440172008E0FB68BA68C3F8C42003E0FB68BA6800
S214401730C3F8B4201437BD465DF8047B704700BF3D
S21440174080B483B000AF786039607B68DB6C7B68C0
S2144017503A681A640C37BD465DF8047B704700BF94
S21440176080B483B000AF786039607B683A685A646A
S2144017700C37BD465DF8047B704700BF80B483B02D
S21440178000AF78607B68DB6C18460C37BD465DF86A
S214401790047B704780B483B000AF78607B689B6CF6
S2144017A018460C37BD465DF8047B704790B587B049
S2144017B002AF786039607868654B9847F8603B6858
S2144017C003F0F043B3F1005F6BD0B3F1005F09D88C
S2144017D0B3F1805F2DD0B3F1C05F46D0B3F1006F58
S2144017E00BD0AEE0B3F1405F00F08380B3F1605FB2
S2144017F07FD0B3F1205F70D0A3E07B6803F01F0377
S214401800012202FA03F3F8684FF000611A46514B82
S21440181098477B6803F01F03012202FA03F31A4637
S2144018203B6803F00103F86811461A464A4B98474E
S21440183089E07B6803F01F03012202FA03F3F8688D
S2144018404FF080511A46434B98477B6803F01F037E
S214401850012202FA03F31A463B6803F00103F868D4
S21440186011461A463C4B98476DE07B6803F01F03D1
S214401870012202FA03F3F8684FF0C0511A46354B7E
S21440188098477B6803F01F03012202FA03F31A46C7
S2144018903B6803F00103F86811461A462E4B9847FA
S2144018A051E07B6803F01F03012202FA03F3F86855
S2144018B04FF000511A46274B98477B6803F01F03AA
S2144018C0012202FA03F31A463B6803F00103F86864
S2144018D011461A46204B984735E07B6803F01F03B5
S2144018E0012202FA03F3F86819463A681B4B9847F8
S2144018F029E07B6803F01F03012202FA03F319462E
S2144019003B6803F06053B3F1605F0CBF01230023D4
S214401910DBB21A463B6803F00403002B14BF0123D6
S2144019200023DBB21C463B6803F00103002B14BFC8
S21440193001230023DBB20093F8682346084CA047F7
S21440194001E0002300E0012318461437BD4690BD51
S214401950911A4000E514400081144000F5154000FF
S2144019607116400090B587B002AFF860B9607A60F3
S2144019707B6803F0F043B3F1005F43D0B3F1005F00
S21440198009D8B3F1805F1FD0B3F1C05F2BD0B3F15D
S214401990006F0AD06DE0B3F1405F48D0B3F1605FAE
S2144019A045D0B3F1205F3CD063E0F8684FF000616B
S2144019B0BA68334B98477B6803F00103F868B96808
S2144019C01A46304B984756E0F8684FF08051BA6850
S2144019D02B4B98477B6803F00103F868B9681A46B2
S2144019E0284B984747E0F8684FF0C051BA68244BF8
S2144019F098477B6803F00103F868B9681A46214B9C
S214401A00984738E0F8684FF00051BA681C4B984742
S214401A107B6803F00103F868B9681A46194B984783
S214401A2029E0F868B9687A68174B984723E07B68DE
S214401A3003F06053B3F1605F0CBF01230023DBB2B9
S214401A401A467B6803F00403002B14BF01230023CF
S214401A50DBB21C467B6803F00103002B14BF012356
S214401A600023DBB20093F868B9682346074CA047CA
S214401A7001E0002300E0012318461437BD4690BD20
S214401A80E514400081144000F515400071164000F2
S214401A9080B485B000AF78607B685B0903F50013BF
S214401AA003F207735B02FB60FB6818461437BD46BB
S214401AB05DF8047B704700BF80B584B000AF7860A7
S214401AC0396078682A4B9847F8607868294B984779
S214401AD00246FB681340FB60FB68002B38D00023AF
S214401AE0BB6032E0244ABB681B0113441A683B685B
S214401AF09A4223D1204ABB681B0113445A68FB68AC
S214401B001340002B1AD01C4ABB681B0113440833F1
S214401B105B681949BA6812010A4410681649BA68DF
S214401B2012010A44526811469847134ABB681B0183
S214401B3013445B68DB43FA681340FB60BB680133C1
S214401B40BB60BB68062B00D902E0FB68002BC9D1FE
S214401B500A4B1B68002B07D0094B1B68002B03D091
S214401B60074B1B68786898471037BD4680BD00BF56
S214401B707D17400095174000640C00202C0D002077
S214401B80D80C002080B586B000AFF860B9607A60A7
S214401B903B60134B1B68062B01D901231CE0104BFE
S214401BA01B681B010F4A13447B617B69BA681A6045
S214401BB07B697A685A607B693A689A607B693A6A58
S214401BC0DA60074B1B680133054A1360F86879688A
S214401BD03A68054B9847002318461837BD4680BDDF
S214401BE0D40C0020640C0020D516400080B500AF11
S214401BF002480B21024B984780BD00BF000E0E40A6
S214401C00B91A400080B500AF02480C21024B9847F5
S214401C1080BD00BF00100E40B91A400080B500AF2E
S214401C2002480D21024B984780BD00BF00120E406F
S214401C30B91A400080B485B000AF78601D491D4B8E
S214401C401B6B23F070027B6813430B634FF40063F7
S214401C50FB6007E0FB68002B01D1012323E0FB6813
S214401C60013BFB60134B9B6E03F00803002BF1D047
S214401C70104A104B1B6B23F0030343F0020313631D
S214401C804FF40063FB6007E0FB68002B01D10123A3
S214401C9009E0FB68013BFB60064B9B6E03F00803C4
S214401CA0002BF1D0002318461437BD465DF8047B60
S214401CB0704700BF00040E4080B483B000AF786029
S214401CC07B68012B07D1084A074B9B6843F02543A6
S214401CD043F480139360044B044A1A600C37BD46A5
S214401CE05DF8047B704700BF10140E40080000A546
S214401CF080B400AF094B5B6903F08003002B07D02C
S214401D00074B9B6E03F08003002B01D0012300E0BD
S214401D1000231846BD465DF8047B704710140E40FD
S214401D2000040E4080B483B000AF7860184A184B69
S214401D301B6A43F45C1343F00803136200BF144B62
S214401D409B6E03F40033002BF9D01149104B1B6AED
S214401D5023F45C1323F070037A68134343F45C1354
S214401D600B6200BF0A4B9B6E03F40033002BF9D086
S214401D70074A074B1B6A23F09B7323F4803343F4D4
S214401D805C1313620C37BD465DF8047B704700BF9A
S214401D9000040E4080B483B000AF786039607B6842
S214401DA0002B08D01649164B1B6A164A1A40164B8B
S214401DB013430B621EE01249114B1B6A23F45C135B
S214401DC023F003033A68120292B2134343F45C13BF
S214401DD043F001030B6200BF094B9B6E03F0010307
S214401DE0002BF9D0064A064B1B6A43F09B7343F41C
S214401DF0803313620C37BD465DF8047B704700BFE6
S214401E0000040E40FCFFC8FE0200370180B400AF5D
S214401E10044B9B6E03F480331846BD465DF8047B46
S214401E20704700BF00040E4080B400AF034B4FF035
S214401E3000529A62BD465DF8047B704700040E402F
S214401E4080B400AF044B9B6E03F002031846BD46B9
S214401E505DF8047B704700BF00040E4080B400AFBE
S214401E60034B0022DA62BD465DF8047B704700BF34
S214401E7000040E4080B400AF044B9B6E03F0040396
S214401E801846BD465DF8047B704700BF00040E4010
S214401E9080B483B000AF78607B68222B01D90123E1
S214401EA02FE07B681F2B13D8194B9A697B6801215A
S214401EB001FA03F31A407B68012101FA03F39A42C0
S214401EC01ED0134A7B68012101FA03F3136117E021
S214401ED07B68203B7B600E4BD3F808217B68012152
S214401EE001FA03F31A407B68012101FA03F39A4290
S214401EF006D0074A7B68012101FA03F3C2F8003195
S214401F00002318460C37BD465DF8047B704700BF7B
S214401F1000040E4080B485B000AF7860396000237E
S214401F20FB607B68AC221A603B681A683B685B685B
S214401F30B2FBF3F31B09FB60FB68002B03D0FB6886
S214401F40B3F5803F01D301230FE07B68FA681A623D
S214401F503B689A687B685A607B6840F20222C3F806
S214401F6020217B6850221A60002318461437BD464D
S214401F705DF8047B704700BF80B483B000AF7860E4
S214401F800B46FB707B685B6903F00203002B01D1B4
S214401F90012303E0FA787B68DA61002318460C37A1
S214401FA0BD465DF8047B704780B483B000AF786070
S214401FB039607B685B6903F00103002B01D1012384
S214401FC005E07B689B69DAB23B681A7000231846C6
S214401FD00C37BD465DF8047B704700BF80B489B0BF
S214401FE000AFF860B9607A60BB681A017B689A42B5
S214401FF002D81023FB6101E00823FB617B68DA000E
S214402000FB69B96801FB03F35B081A44FB69B968CE
S21440201001FB03F3B2FBF3F3BB61BB69DB087B61F7
S214402020BB6903F007033B617B69002B03D07B69E8
S214402030B3F5803F01D301230FE0FB69082B05D1A0
S214402040FB685B6843F40022FB685A603B691A04ED
S2144020507B691A43FB681A62002318462437BD463C
S2144020605DF8047B704700BF80B582B000AF7860F3
S21440207078680E4B98477B6800225A607B6800223F
S2144020805A627B6800229A627868094B984778685B
S214402090084B98477868084B98477868074B9847A6
S2144020A07868074B98470837BD4680BD6522400094
S2144020B06121400091214000A9214000E1214000DB
S2144020C0C521400080B584B000AFF860B9607A6042
S2144020D0F8681A4B98471A4B00221A60BB68002BC8
S2144020E009D0BB681B68F86819467A68154B98474C
S2144020F00346002B01D001231BE0BB685A68BB682F
S2144021009B681A43BB681B691A43BB68DB681A4363
S2144021100B4B1B6813430A4A1360094B1B68084A5B
S2144021201360FB685A68064B1B681A43FB685A6084
S214402130002318461037BD4680BD00BF69204000CA
S214402140DC0C0020DD1F400080B483B000AF786018
S2144021507B6840221A600C37BD465DF8047B7047AA
S21440216080B483B000AF78607B6888221A600C37F2
S214402170BD465DF8047B704780B483B000AF78609E
S2144021807B6810221A600C37BD465DF8047B7047AA
S21440219080B483B000AF78607B6824221A600C3726
S2144021A0BD465DF8047B704780B483B000AF78606E
S2144021B07B684FF480721A600C37BD465DF8047B2E
S2144021C0704700BF80B483B000AF78607B684FF440
S2144021D000321A600C37BD465DF8047B704700BF7E
S2144021E080B483B000AF78607B684FF400221A60FA
S2144021F00C37BD465DF8047B704700BF80B483B0A3
S21440220000AF786039607B685B6903F00203002B9F
S21440221001D1012305E03B68C3F308027B68DA611D
S214402220002318460C37BD465DF8047B704700BF58
S21440223080B483B000AF786039607B685B6903F038
S2144022400103002B01D1012306E07B689B69C3F3A1
S21440225008023B681A60002318460C37BD465DF8F6
S214402260047B704780B483B000AF78607B68044AD4
S214402270C3F8E4200C37BD465DF8047B704700BFCA
S2144022800041535580B584B000AF274BFB60274BC9
S214402290BB60FA68BB689A420DD907E0BB681A1D56
S2144022A0BA60FA68111DF96012681A60BB68204A65
S2144022B09342F3D320E0FA68BB689A421CD21C4A89
S2144022C01A4BD31A7B60FA687B681344043BFB6066
S2144022D0BA687B681344043BBB600AE0BB681A1FBD
S2144022E0BA60FA68111FF96012681A607B68043B8E
S2144022F07B607B68002BF1D100BF0E4BBB6004E0D7
S214402300BB681A1DBA6000221A60BB680A4A93422C
S214402310F6D30A4BFB600A4AFB689360094B984722
S214402320094B9847FEE700BFD488400000000020D5
S2144023308408002084080020E40D002000004000AF
S21440234000ED00E09D2E4000512E400080B400AFCE
S214402350FEE700BF80B400AF5D4B1B6B03F003038A
S214402360032B00F2968001A252F823F07D23400012
S2144023709D234000E7234000E7234000554B5B6920
S21440238003F08003002B04D0534B4FF400421A60F6
S21440239080E0514B4FF4FA421A607BE04C4B1B6A8C
S2144023A003F08073002B03D04B4B4C4A1A6019E065
S2144023B0494B4B4A1A60464B1B6A03F07003102B7E
S2144023C008D0202B0AD0002B00D00BE0424B444ACA
S2144023D01A6007E0404B434A1A6003E03E4B3F4AD0
S2144023E01A6000BF56E03A4B1B6A03F08073002B1E
S2144023F003D0394B394A1A6019E0374B384A1A60CD
S214402400334B1B6A03F07003102B08D0202B0AD0E6
S214402410002B00D00BE0304B314A1A6007E02E4BC1
S214402420304A1A6003E02C4B2C4A1A6000BF284BF7
S2144024301B6B03F00303022B15D1254B9A6A2A4BDC
S21440244013401B0C0133244A126802FB03F3224A52
S21440245013601F4B9B6ADBB21F4A1268B2FBF3F352
S2144024601D4A136016E01A4BDA6A1F4B13401B0CCA
S2144024700133194A126802FB03F3174A1360144BE0
S214402480DB6ADBB2144A1268B2FBF3F3124A1360FB
S21440249000E000BF0E4B1B6B03F07003702B08D19F
S2144024A00D4B1B68114AA2FB03235B080A4A1360C4
S2144024B009E0074B1B6B03F070031A09064B1B68B9
S2144024C0D340054A1360BD465DF8047B704700BFA5
S2144024D000040E4010140E4008000020001BB700F9
S2144024E000093D0000127A000000FF07ABAAAAAA26
S2144024F080B483B000AF78607B68224A934208D8A5
S214402500214B4FF080621A60204B4FF080621A6079
S21440251033E07B681E4A934206D81B4B1D4A1A601E
S2144025201A4B1C4A1A6028E07B681B4A934206D81E
S214402530154B1A4A1A60154B184A1A601DE07B68FC
S214402540174A934206D8104B164A1A600F4B154A44
S2144025501A6012E07B68144A934208D80A4B4FF040
S21440256004221A60094B4FF004221A6005E0064B1D
S2144025700E4A1A60054B0D4A1A600C37BD465DF888
S214402580047B7047FF2C3101000A0E40000C0E40C1
S214402590FF59620200010004FF8693030002000414
S2144025A0FFB3C40400030004FFE0F5050005000483
S2144025B080B485B000AF7860104BFB60104B1B6852
S2144025C0002B02D10E4B0F4A1A600D4B1B68BB60A6
S2144025D0BA687B681A44FB689A4202DD4FF0FF33C4
S2144025E006E0074B1A687B681344054A1360BB68CD
S2144025F018461437BD465DF8047B7047FC7F0220C2
S214402600E00C0020E83D002080B483B000AF786046
S2144026104FF0FF3318460C37BD465DF8047B7047D5
S21440262080B485B000AFF860B9607A600023184681
S2144026301437BD465DF8047B704700BF80B483B056
S21440264000AF0346FB71084997F907305B09FA79F2
S21440265002F01F02012000FA02F241F823200C3754
S214402660BD465DF8047B704700E100E080B483B06F
S21440267000AF03463960FB7197F90730002B0BDA41
S2144026800D49FB7903F00F03043B3A68D2B21201BE
S214402690D2B20B441A7609E0084997F907303A68EF
S2144026A0D2B21201D2B20B4483F800230C37BD4697
S2144026B05DF8047B704700BF00ED00E000E100E0FD
S2144026C080B483B000AF78607B68072B25D801A222
S2144026D052F823F0F5264000FB2640000127400034
S2144026E0072740000B2740000F27400013274000D5
S2144026F0172740004FF4FA4310E04FF400430DE034
S2144027004FF400430AE0084B08E0084B06E0084B4D
S21440271004E0074B02E0064B00E0002318460C3767
S214402720BD465DF8047B704700093D0000127A0004
S214402730001BB70080B500AF0620044B9847024602
S21440274013469B0013449B00184680BDC12640009C
S21440275080B500AF024B984703465B08184680BDDD
S2144027603527400080B500AF024B984703465B08CC
S214402770184680BD3527400080B582B000AF7860EF
S2144027807868024B98470837BD4680BD911E40008A
S21440279080B58CB000AF78603960304B98470346C0
S2144027A07B623B681B68BB623B689B68FB623B681E
S2144027B01B68FB603B685B683B613B689B687B6172
S2144027C03B68DB68BB610023FB617B68244A93421D
S2144027D008D10820234B984707F124037868194608
S2144027E0214B98477B68214A934208D109201D4BCC
S2144027F0984707F12403786819461B4B98477B682F
S2144028001B4A934211D10E20164B9847134B9847BC
S214402810024607F10C0378681946164B98477868C5
S214402820154B98477868154B98477B68144A9342EF
S21440283011D10F200B4B9847084B9847024607F19B
S2144028400C03786819460B4B984778680A4B9847AC
S21440285078680A4B98473037BD4680BD65274000AC
S21440286000060E4079274000151F400000080E4025
S21440287000400240C52040004921400079214000E8
S2144028800080024080B582B000AF78600B46FB7097
S2144028907B68204A93420AD100BFFB787868194685
S2144028A01D4B98470346002BF7D101232DE07B684C
S2144028B01A4A93420AD100BFFB7878681946164BED
S2144028C098470346002BF7D101231EE07B68144A45
S2144028D093420AD100BFFB7878681946114B984757
S2144028E00346002BF7D101230FE07B680E4A934244
S2144028F00AD100BFFB78786819460A4B98470346CA
S214402900002BF7D1012300E0002318460837BD46C8
S21440291080BD00BF00060E40791F400000080E40F4
S21440292000400240FD2140000080024080B584B057
S21440293000AF786039600023FB607B681E4A934294
S21440294007D100BF786839681C4B98470346002B70
S214402950F8D17B681A4A934207D100BF7868396835
S214402960164B98470346002BF8D17B68154A93428E
S2144029700DD100BF07F10C0378681946124B9847F3
S2144029800346002BF6D1FB68DAB23B681A707B68C8
S2144029900E4A93420DD100BF07F10C0378681946E2
S2144029A0094B98470346002BF6D1FB68DAB23B68E2
S2144029B01A701037BD4680BD00060E40A91F400065
S2144029C000080E4000400240312240000080024095
S2144029D080B582B000AF786039600F4A7B6813607C
S2144029E00E4B0F4A1A600F4B0F4A1A6078683968C8
S2144029F00E4B98470E4B1B689B68184600210D4BA4
S214402A0098470B4B1B685B6818460021094B984754
S214402A100837BD4680BD00BF280D0020240D00208D
S214402A2085284000200D00202D2940009127400099
S214402A3038040020892F400090B583B000AF7860FE
S214402A4039606FF07F400C4B98473B68053B1A4611
S214402A503B680F3300201146F022084CA047002068
S214402A60054B98473A687B68322011461A46044B15
S214402A7098470C37BD4690BDE90F4000E511400031
S214402A809113400080B584B000AF3B4600221A60E8
S214402A90043300221A60043300221A6004330022F2
S214402AA01A6004334FF4E1333B604FF40063BB607D
S214402AB00820054B98473B4604481946044B984720
S214402AC01037BD4680BD00BF7927400000060E4047
S214402AD0D129400080B582B000AF104B984778604F
S214402AE017200F4B98470F48002144F204020E4B24
S214402AF098470C4800214FF400420C4B984717204B
S214402B000B4B98470748002110220A4B9847054828
S214402B100021094B98470837BD4680BD51274000E5
S214402B20911E400000000140290140008101400004
S214402B303D264000A50140006101400080B582B0BE
S214402B4000AF786039600A4B1B680133084A13604F
S214402B50074B1B68074808491A46084B9847054BD9
S214402B601846D721064B98470837BD4680BD00BF5C
S214402B70E40C0020300D0020EC86400091304000F0
S214402B80392A400080B582B000AF786039600A4B81
S214402B901B68013B084A1360074B1B6807480849F7
S214402BA01A46084B9847054B1846D721064B984778
S214402BB00837BD4680BD00BFE40C0020300D002025
S214402BC0EC86400091304000392A400080B582B003
S214402BD000AF0D4800210D4B984703467B607B684D
S214402BE00B4B1B6801330A4A1360094B1B680948A4
S214402BF009491A46094B9847064B1846F021084B98
S214402C0098470837BD4680BD00000140CD014000D2
S214402C10E80C0020900D0020FC86400091304000DB
S214402C20392A400090B583B002AF0C20224B98471B
S214402C300D20214B9847214808210922204B9847D0
S214402C4020484FF4805109221D4B98471B480821C5
S214402C5064221D4B98471B484FF4805164221A4B00
S214402C6098471A4B009315480C2108225023184CBD
S214402C70A047184B009313480D214FF48052502321
S214402C80134CA0470D480821134B98470D484FF466
S214402C908051114B98470C200A21104B98470D2025
S214402CA00A210E4B98470C200D4B98470D200C4B95
S214402CB098470437BD4690BD911E400000100E4018
S214402CC0F515400000120E40AD1440003D2B40006C
S214402CD0851B4000852B4000411740006D26400074
S214402CE03D26400098B500AF0A201F4B98471F4826
S214402CF001214FF002321E4B98471C4801211D4AC5
S214402D001D4B9847194801211C4A1D4B98471748A8
S214402D10012103221B4B98471B4BF0221A601A4B8B
S214402D204FF4A0725A60184B00229A60164B6FF010
S214402D307F42DA60154B98471348154B9847082052
S214402D40144B98476FF07F40134B98470020002164
S214402D50F0224FF4A073114CA047114B9847002027
S214402D600021104B984798BD911E400000000E4031
S214402D70F113400004040A0A151440000A00160025
S214402D80391440005D144000800D0020FD074000CF
S214402D90210C400075074000E90F4000E511400057
S214402DA0B10F40001111400098B500AF0020214BF4
S214402DB098470A201421204A204B98470A20282169
S214402DC01F4A1E4B98470A203C211E4A1B4B9847D9
S214402DD00020184B984700209121F0229B231A4C44
S214402DE0A0470020A521F022AF23174CA047002083
S214402DF0104B98475A204FF48271962240F2131394
S214402E00114CA0474FF47F000A4B98475A2040F297
S214402E10131196224FF491730B4CA0470B48054B69
S214402E2098475A204FF49171962240F23113064C3F
S214402E30A04798BDE90F4000088740009113400026
S214402E401087400018874000E511400000FFFF0053
S214402E5080B500AF094B9847094B9847094B9847B0
S214402E60094B4FF400425A60084B9847084B984726
S214402E70084B9847084B9847FEE700BFCD044000F4
S214402E8039064000852A400050140E40D52A40009E
S214402E90252C4000E52C4000A92D400070B50F4E73
S214402EA00F4D761BB61018BF002405D0013455F8D8
S214402EB0043B9847A642F9D10A4E0B4D761B05F0C7
S214402EC0F3FCB61018BF002406D0013455F8043B76
S214402ED09847A642F9D170BD70BD00BFB488400087
S214402EE0B4884000BC884000B488400070B4840772
S214402EF046D0541E002A41D0CDB2034602E0621EA0
S214402F00E4B3144603F8015B9A07F8D1032C2ED994
S214402F10CDB245EA05250F2C45EA054519D903F1FA
S214402F2010022646103E0F2E42F8105C42F80C5C0B
S214402F3042F8085C42F8045C02F11002F2D8A4F1B0
S214402F40100222F00F0204F00F041032032C134438
S214402F500DD91E462246043A032A46F8045BFAD8A0
S214402F60221F22F003020432134404F003042CB15F
S214402F70C9B21C4403F8011BA342FBD170BC704786
S214402F8014460346C2E700BF00290CBF02220022B7
S214402F904FF4806300F000B82DE9F0413A4C2668C3
S214402FA00D46044690461F4616B1B36B002B3CD0E8
S214402FB0B8F1020F2FD8002F2DDB2146304602F005
S214402FC073FBA18900236360A3610B0627D421F01D
S214402FD0830189B2B8F1020FA1812AD0002D36D0E4
S214402FE0B8F1010F11D089B201F00800274BF36306
S214402FF080B225602561676178B111F0030F18BF74
S2144030000027A7600020BDE8F08141F001017B4227
S214403010A181A361E7E74FF0FF30BDE8F081216969
S214403020304602F043FCA189D1E7304602F0D0FB9F
S214403030BEE7002004F1430341F0020100250122CF
S214403040A181A560236023616261BDE8F081002F05
S21440305008BF4FF48067384602F02EFD054628B17B
S214403060A18941F0800189B2A181B9E74FF480601F
S21440307002F022FD054618B9A1894FF0FF30D9E786
S2144030804FF48067ECE700BF38040020D556400078
S2144030900EB4F0B59CB021AB0F4953F8042B019306
S2144030A005466FF00044086802954FF402774FF6E5
S2144030B0FF7602A90695ADF8147004940794ADF80F
S2144030C0166000F00BF8029B00221A701CB0BDE898
S2144030D0F04003B0704700BF380400202DE9F04FA1
S2144030E0C1B089460A920E93089002F0E1FC03684C
S2144030F01793184603F030FEB9F80C3018901A06AD
S21440310004D5D9F81030002B01F08C80002330AF66
S214403110139325932493169319930B932397149301
S21440312015933C464E460A9D2B78002B00F0A9800E
S214403130252B02D1A5E0252B03D015F8013F002B07
S214403140F9D10A9BEB1A73B1249A25990A98206004
S21440315001321944072A63602591249272DC0834B0
S2144031600B9A1A440B922B78002B00F0B58700235D
S214403170691C6D788DF86F301A460C9307934FF0A4
S214403180FF3A4B1CA5F12001582900F2D983DFE80D
S21440319011F07002D703D7037403D703D703D703BE
S2144031A0D703D703D703F0020D02D703F401110269
S2144031B0D7037B03BA02BA02BA02BA02BA02BA020A
S2144031C0BA02BA02BA02D703D703D703D703D70344
S2144031D0D703D703D703D703D703C9028B03D70335
S2144031E08B03D703D703D703D7036D03D703D70380
S2144031F00503D703D703D703D703D7032303D70340
S214403200D7033D03D703D703D703D703D703D70343
S214403210D703D703D703D70358032C028B038B035C
S2144032208B03FE022C02D703D703E602D7037E02A7
S214403230FB01C0037702D7039202D7037A00D70375
S214403240D7034A0208980793314623AA03F0B2FDF3
S21440325050B93C46079B83E70898314623AA03F0BB
S214403260A9FD002800F08581B146B9F80C3013F06E
S214403270400F0B9B18BF4FF0FF33184641B0BDE8D8
S214403280F08F0A9D6FE70A93079B980640F1AD8240
S2144032900E9B03F1070929F0070303F10802D3E95F
S2144032A000890E9201234FF0000C8DF86FC0CDF8C8
S2144032B044A0BAF1000F03DB079A22F0800207927F
S2144032C058EA090240F04C83BAF1000F00F05184EE
S2144032D0012B00F04F83022B00F0908439464FEAD2
S2144032E0D80242EA49724FEAD90008F007038146FD
S2144032F09046303358EA090201F8013DEFD1079A6B
S2144033001091D20700F144857B1A0D930D9A924591
S2144033105346B8BF1346099300231293BCF1000FDF
S21440332002D0099B01330993079B13F002030F93C6
S21440333002D0099B02330993079B13F0840940F09F
S2144033400C830C9B099AC2EB0308B8F1000F40F3BC
S2144033500483B8F1100F2599249ADFF844A529DD97
S21440336053464FF0100BC246A8461D4606E0AAF14B
S214403370100ABAF1100F04F1080417DD01321031BB
S214403380072A2591249284E82008F0DD08983146E3
S21440339023AA03F00FFD00287FF466AFAAF1100AB7
S2144033A0BAF1100F2599249A3C46E7DC2B46454651
S2144033B0D0469A46013208EB010B072ACDF894B066
S2144033C02492C4F800A0C4F8048000F37B849DF8DF
S2144033D06FC00834BCF1000F0FD0249B01330BF1B3
S2144033E0010B0DF16F010122072BCDF894B0249309
S2144033F084E8060000F3DA8308340F9B73B1249BFD
S21440340001330BF1020B1CA90222072BCDF894B016
S214403410249384E8060000F3D5830834B9F1800F7E
S21440342000F01183119B0D9AC2EB030ABAF1000F0C
S2144034303CDDBAF1100F249ADFF868942BDD49463C
S2144034405B46A9464FF01008DDF820B00D4606E072
S214403450AAF1100ABAF1100F04F1080417DD013280
S2144034601033072A2593249284E82001F0DD58463D
S214403470314623AA03F09EFC00287FF4F5AEAAF15D
S214403480100ABAF1100F259B249A3C46E7DC9B466F
S2144034902B464D4699460132D344072ACDF894B080
S2144034A0249284E8000600F375830834079BD90508
S2144034B000F16C82249B0D99109A226001338B4454
S2144034C0072BCDF894B06160249300F3468308340C
S2144034D0079B5A0741D50C9B099A9D1A002D3CDD47
S2144034E0102D249BDFF8B8A323DD4FF010085A4672
S2144034F0DDF8209004E0103D102D04F1080417DD9F
S21440350001331032072B25922493C4F800A0C4F848
S2144035100480F0DD4846314623AA03F04BFC0028E1
S2144035207FF4A2AE103D102D259A249B3C46E7DC46
S21440353093460133AB44072BCDF894B02493C4F89C
S21440354000A0656009DD0898314623AA03F032FCE6
S21440355000287FF489AEDDF894B00B9B099A0C994D
S2144035608A42ACBF9B185B180B93BBF1000F7FF4ED
S21440357073AE002324933C46D5E5194607981D783C
S21440358040F004000790FCE50A93079B13F02003E5
S21440359000F00E810E9B03F1070929F0070303F1A3
S2144035A00802D3E900890E9200237CE61D7819466E
S2144035B02B22E6E51D782A2D03F1010100F0AD87A8
S2144035C0A5F1300009280B464FF0000A3FF6DAAD69
S2144035D013F8015B0AEB8A0A00EB4A0AA5F13000B1
S2144035E00928F5D94AEAEA7ACCE50A93079B8DF88A
S2144035F06F209B0640F1A1800E9B03F1070929F03E
S2144036000709D9E9002309F108010E919046994629
S214403610002A73F10003C0F20B849DF86FC0CDF80A
S21440362044A0012345E60A939B4B1693079B8DF8CF
S2144036306F209B0640F1F3800E9B03F1070929F0AB
S2144036400703D3E9008903F108020E92079BD907C6
S21440365040F1F58058EA090300F0F180079A8DF8AA
S2144036607150302342F002028DF8703007920223E8
S21440367019E61D781946002A7FF483AD202280E59E
S214403680079941F0200107911D78194679E50A937C
S214403690079B8DF86F209A0640F1A1840B990E9AED
S2144036A04FEAE179136808468846043249460E9246
S2144036B0C3E9000137E50E9A0A93136810934FF05A
S2144036C0000B8DF86FB002F10409002B00F03B862A
S2144036D0BAF1000F1098C0F2E9855946524602F0FA
S2144036E085FC002800F06C86109BCDF844B0C31AC9
S2144036F00D93CDF8389023EAE3730993CDF848B09C
S2144037009DF86FC00AE6A5F13000002113F8015B72
S21440371001EB810100EB4101A5F130000928F5D904
S2144037200C912FE50A93079B8DF86F2043F010030A
S2144037300793079B9B063FF55FAF079BD80600F1B4
S2144037406883079B590640F164830E99B1F900805F
S21440375004314FEAE87942464B460E9158E71D78C9
S21440376007996C2D00F0CB8441F010010791194663
S21440377007E50E9D29680C9108460028294601F168
S2144037800401C0F2B5840E911D781946F9E40799F4
S21440379041F0400107911D781946F2E40A93079BD1
S2144037A043F010030793079B13F020037FF4F2AE19
S2144037B0079A12F0100240F01983079B13F040035B
S2144037C000F014830E9913460A460432B1F800807E
S2144037D00E924FF0000966E50A93079B43F01003EC
S2144037E00793079B98063FF553AD079BD90600F114
S2144037F00683079B5A0640F102830E9AB2F8008071
S21440380004324FF0000901230E924CE50A93234BF5
S2144038101693079B8DF86F209B063FF50DAF079BD1
S214403820D80640F1CD830E9A13461B689846079BF0
S2144038300432D9070E924FF000093FF50BAF022332
S21440384031E50E990A930A688DF8982000230122E4
S21440385004319C4609920E918DF86F3026ABCDF818
S21440386044C0CDF848C00D9210935DE5079941F0ED
S214403870080107911D78194683E4079941F0010134
S21440388007911D7819467CE4079941F0800107911D
S2144038901D78194675E400BF6C8740005887400085
S2144038A038874000288740000A930E9B8DF86F208B
S2144038B003F1070929F0070303F108020E921A687C
S2144038C014925B6815931599149803F0C5F901286E
S2144038D0D3461498159940F059830022002304F0EB
S2144038E027F8002840F064859DF86FC0079BBE4AC5
S2144038F0DFF800E323F080030793134603210020FC
S214403900472DD8BF73460991119010930D91129090
S21440391004E50E9807990A93302203688DF87020C4
S2144039200246782541F0020104329846AF4B169382
S21440393007910E924FF000098DF871500223B2E4C1
S2144039400A938DF86F20002D00F0C68300230122D5
S2144039509C4609928DF898507EE7DDF894B039E59C
S214403960012B7FF4B8ACB9F1000F08BFB8F10A0FCD
S21440397080F01C820DF5807B08F130080BF8418DF5
S214403980CBEB07030D93CDF840B0BFE4652D40F375
S214403990A080149815990022002303F0BFFF00284A
S2144039A000F04581249B924A226001330BF1010BC3
S2144039B00122072BCDF894B02493626000F3348341
S2144039C008341D9B139A934203DB079BDA077FF567
S2144039D07FAD249B1899179A226001338B44072B9E
S2144039E0CDF894B06160249300F390830834139B21
S2144039F05D1E002D7FF76CAD102D249BDFF8F891EF
S214403A0040F3BA814FF010085A46DDF820A004E093
S214403A100834103D102D40F3AE8101331032072B91
S214403A2025922493C4F80090C4F80480F0DD5046F4
S214403A30314623AA03F0BEF900287FF415AC259A38
S214403A40249B3C46E5E70C9B099AC2EB030ABAF175
S214403A50000F7FF7E7ACBAF1100F249ADFF8989181
S214403A602BDD49465B46A9464FF01008DDF820B0EE
S214403A700D4606E0AAF1100ABAF1100F04F1080448
S214403A8017DD01321033072A2593249284E820015B
S214403A90F0DD5846314623AA03F08CF900287FF41F
S214403AA0E3ABAAF1100ABAF1100F259B249A3C46C4
S214403AB0E7DC9B462B464D4699460132D344072ABF
S214403AC0CDF894B0249284E8000600F3528208347D
S214403AD0A8E4139B249D012B40F32082109B236077
S214403AE001350BF101030122072D259324956260D1
S214403AF000F32682083418996160013503EB010B08
S214403B00072D179BCDF894B02495236000F32482AC
S214403B100834002314981599002203F0FFFE139BE7
S214403B20002840F0DE80109A013B013501329B446C
S214403B30072D2495CDF894B02260636000F30E8183
S214403B400834199A6260013593441FAB072DCDF8AF
S214403B5094B0249523607FF7BAAC0898314623AAE0
S214403B6003F028F900287FF47FABDDF894B03C469C
S214403B70AEE4002B32D1079BD8072FD50DF5807BBE
S214403B8030230BF8413DCBEB07030D93CDF840B007
S214403B90FFF7BCBB0898314623AA03F00BF9002870
S214403BA07FF462ABDDF894B03C467FE4089831463B
S214403BB023AA03F0FFF800287FF456ABDDF894B054
S214403BC03C461AE40898314623AA03F0F3F8002846
S214403BD07FF44AABDDF894B03C461FE4CDF834A001
S214403BE01097FFF793BB00BF4C8740006C874000A0
S214403BF08887400048874000288740001698BB4684
S214403C004FEA181308F00F0143EA09734FEA1912F6
S214403C1098469146435C0BF8013D58EA0903EFD1BC
S214403C205B46CDF840B0FB1A0D93FFF76FBB1D9D6A
S214403C30002D40F30582139A12998A421346A8BF74
S214403C400B461D461099002D01EB020A0BDD249B06
S214403C5021600133AB44072BCDF894B065602493C4
S214403C6000F34D830834129B002DA8BF5B1B002B2E
S214403C701D4640F3F580102D249BDFF8F49540F365
S214403C80C6815A464FF01008DDF820B004E00834EC
S214403C90103D102D40F3BA8101331032072B259288
S214403CA02493C4F80090C4F80480F0DD58463146AA
S214403CB023AA03F07FF800287FF4D6AA259A249BEF
S214403CC03C46E5E70898314623AA03F073F80028F7
S214403CD07FF4CAAA9DF86FC0DDF894B03C46FFF763
S214403CE079BB03F1FF38B8F1000F7FF72AAFB8F180
S214403CF0100FDFF87C9525DD5B464FF0100ADDF8A7
S214403D0020B006E0A8F11008B8F1100F04F108043E
S214403D1017DD01351033072D2593249584E80006DA
S214403D20F0DD5846314623AA03F044F800287FF4D5
S214403D309BAAA8F11008B8F1100F259B249D3C467D
S214403D40E7DC9B460135C344072DCDF894B0249557
S214403D50C4F80090C4F804807FF7F2AE0898314665
S214403D6023AA03F027F800287FF47EAADDF894B053
S214403D70249D3C46E5E693460133AB44072BCDF8FD
S214403D8094B02493C4F8009065607FF7A0ABE4E657
S214403D90302B109B3FF447AF013B1A461093BA1A9C
S214403DA030230D9201F8013CFFF7B0BABB46CDF880
S214403DB024C0404649460A22002303F009FE30321A
S214403DC0404649460BF8012D00230A2203F000FE28
S214403DD08046894658EA0903EBD15B46FB1ADDF874
S214403DE024C0CDF840B00D93FFF790BA0E990A68FC
S214403DF004310E9190464FF00009FFF754BA0E99E1
S214403E000A68043101230E9190464FF00009FFF7EF
S214403E104ABA0E9A136898464FEAE3791346043333
S214403E2042460E93002A4B4673F10003BFF6F5ABAD
S214403E304FF02D0CD8F1000869EB49098DF86FC09A
S214403E40CDF844A00123FFF734BA0898314623AA98
S214403E5002F0B0FF00287FF407AADDF894B03C4695
S214403E60109A12991D9B0A449046139A934246DB39
S214403E70079AD00743D4139AC8EB0A05D31A9D4233
S214403E80A8BF1D46002D0CDD249AC4F800800132E0
S214403E90AB44072ACDF894B06560249200F367825D
S214403EA00834002DACBF5D1B1D46002D7FF710ABC0
S214403EB0102D249BDFF8B8937FF75EAF4FF01008C5
S214403EC05A46DDF820A004E00834103D102D7FF758
S214403ED052AF01331032072B25922493C4F800903A
S214403EE0C4F80480F0DD5046314623AA02F062FF53
S214403EF000287FF4B9A9259A249B3C46E5E7249AF6
S214403F0018981799216001328344072ACDF894B057
S214403F106060249200F30A820834ACE7079BD90716
S214403F203FF5DCAD109B236001350BF1010B0123FF
S214403F30072DCDF894B0249563607FF701AE0DE76A
S214403F400898314623AA02F035FF00287FF48CA952
S214403F50259B249D3C46CEE50898314623AA02F090
S214403F6029FF00287FF480A9DDF894B0249D3C46C4
S214403F70CFE50898314623AA02F01CFF00287FF4BC
S214403F8073A9DDF894B03C46FFF74CBA02F064FEE5
S214403F90002840F0C7808646B24AB34B1190079837
S214403FA09DF86FC0CDF848E0032120F08000472DF3
S214403FB0D8BF1A460991079010920D91FFF7AEB9F7
S214403FC0079B0E9A13F0400F13463FF42EAC043373
S214403FD0B2F800800E934FF00009FFF737BB079BFF
S214403FE0DB060BD4079B5D0608D50E9A1368043291
S214403FF00E92BDF82C201A80FFF795B80E9A1368DB
S21440400004320E920B9A1A60FFF78DB8934601332E
S214404010AB44072BCDF894B02493C4F80090656069
S2144040203FF713AF08341BE70898314623AA02F03F
S214404030C1FE00287FF418A9DDF894B03C46C0E4E1
S214404040249B8A4A226001330BF1010B0122072B85
S214404050CDF894B02493626000F3F48008342DB910
S214404060139B1BB9079BDB077FF532AA249B189846
S214404070179A226001330BEB0001072B25916060F5
S214404080249300F3F38104F108026D42002D40F3BF
S214404090FC80102DDFF8D89140F33D811024DDF8E8
S2144040A0208004E00832103D102D40F33481013367
S2144040B01031072B25912493C2F800905460F1DD0F
S2144040C04046314623AA02F075FE00287FF4CCA86D
S2144040D02599249B3A46E6E7259BB146002B3FF4BC
S2144040E0C4A80898314623AA02F064FEFFF7BDB87C
S2144040F00C980E9140420C901946FFF73FBA41F09B
S214404100200107915D78591CFFF73BB80898314667
S21440411023AA02F04FFE00287FF4A6A8DDF894B04C
S2144041203C4664E425F02003BAF1FF3F0D9300F0CF
S2144041309680472B05D1BAF1000F14BFD3464FF0F7
S214404140010B079B43F480731193159BB3F1000A50
S214404150149B0993BBBF534603F1004A00232D230B
S214404160662D0F9300F0AC80462D00F0A9800D9B85
S214404170099A452B0CBF0BF10109D94602201DA90F
S2144041808DE8010202911EA821A90390534604918E
S214404190089800F095FA672D109002D0472D40F011
S2144041A09F80079BDB0740F18981109B03EB090842
S2144041B0099851460022002303F0B0FB002840F047
S2144041C0FD80219B984506D930215A1C21921970B2
S2144041D0219B9845F9D8109A9B1A13930D9B472B11
S2144041E01D9B00F0DE80652D40F3F880662D12930F
S2144041F000F05781139B129A934200F34481079B29
S214404200D90700F1738122EAE2730D920F9A002AD1
S21440421040F0BC800993119B079311929DF86FC0A4
S214404220FFF77CB80898402101F04EFCC9F8000022
S214404230C9F81000002800F08C814023C9F81430DB
S214404240FEF764BF0898314623AA02F0B3FD002863
S2144042507FF40AA81D9DDDF894B03C46FFE64FF07B
S214404260060B6EE754874000508740008887400022
S214404270288740000898314623AA02F09BFD002874
S2144042807EF4F2AF2599249B3A46139C5460013342
S21440429001EB040B072B1099CDF894B024931160D2
S2144042A03FF75BAC02F10804FFF712B9CDF844B013
S2144042B002F052FDCDF838900D900346FFF71BBA3A
S2144042C003201DA98DE8010802911EA821A903908C
S2144042D0099A04915346089800F0F2F9D94610908E
S2144042E0109B03EB09080D9B462B7FF461AF109B98
S2144042F01B78302B00F0E4801D9B984458E70898C4
S214404300314623AA02F056FD00287EF4ADAFDDF814
S21440431094B03C46A7E401332944072B25912493C7
S214404320C2F800905560A5DC0832AEE708983146E2
S21440433023AA02F03FFD00287EF496AF1D9BDDF8D1
S21440434094B03C4697E55346062B28BF06230D936C
S21440435023EAE373DDF840C00993834BCDF83890E9
S214404360CDF844C0CDF848C01093FEF7D7BF0898A4
S214404370314623AA02F01EFD00287EF475AF1D9B31
S214404380139ADDF894B0D31A3C468AE50993119BFC
S21440439007934FF02D0C00238DF86FC01193FEF756
S2144043A0C0BFDA1C19DB9B4517DB1293672521E754
S2144043B04FF02D0C8DF86FC0FFF798BA43460AE7CA
S2144043C02AEAEA731190CDF8389012909DF86FC0A3
S2144043D00993CDF834A0FEF7A1BF023D013B002B68
S2144043E01D93BABF5B422D222B22092B8DF87C50A1
S2144043F08DF87D2072DD0DF18B0E70465B4A82FB98
S2144044000321DA17C2EBA10202EB8201A3EB4103C0
S21440441003F13001092A134600F8011DEEDC02467E
S2144044203033D9B202F8011D964540F299800DF11D
S2144044307E02034601E013F8011B02F8011B734598
S214404440F9D123AB1B1A0DF17E0213441FAA9B1A07
S214404450139A1993012A13440D936BDD0D9B00228A
S21440446001330D93129223EAE373CFE60898314660
S21440447023AA02F09FFC00287EF4F6AE1D9D2599E7
S214404480249B3A4601E6129B002BD8BFC3F1020894
S214404490139BC8BF4FF0010843440D9323EAE373D0
S2144044A0B4E6002B30DDBBF1000F25D1079BDB07C0
S2144044B022D4129A0D9222EAE273A7E6219B8AE65C
S2144044C0099851460022002303F028FA00287FF47A
S2144044D013AFC9F101031D93984469E63033302287
S2144044E08DF87F308DF87E2020ABAFE7129B0133EE
S2144044F00D9323EAE37389E6129B0BF101084344CC
S2144045000D9323EAE37381E6BBF1000F1BD1079BB3
S214404510D80718D401230D9378E60E9DD5F800A051
S21440452028460430BAF1000F5D780E90BEF629AEEC
S214404530FEF725BE079B13F001038FD112930D9B08
S21440454023EAE37362E60BF102030D9323EAE37377
S2144045505CE6089A0C2313604FF0FF30FEF78EBEE1
S2144045600DF17E0372E700BF80874000676666668F
S214404570024B13B1024800F005B870470000000037
S214404580E5574000014600200246034602F0A8BC1C
S21440459002690B69934200F38F802DE9F04F03F1D7
S2144045A0FF3801F1140700F1140B57F828205BF888
S2144045B028304FEA880483B00132B3FBF2F90BEBA4
S2144045C00403009407EB040A0193B9F1000F3BD0B3
S2144045D000263246BC46DE4634465CF8046BDEF8BF
S2144045E00050B3B2360C03FB094406FB09F606EB53
S2144045F01446A3B2D31AB4B213FA85F3C4EB1544E7
S21440460004EB23449BB243EA0443E2454FEA244288
S2144046104EF8043B4FEA1644DFD2009B5BF803306B
S21440462093B9019C231F9B450CD254F8043C4BB9CC
S214404630A4F1080302E01A68043B1AB99B4508F146
S214404640FF38F8D3C0F81080044602F025F800285A
S2144046502EDB09F101095D46002357F8041B286844
S2144046608AB29A1A090C12FA80F2C1EB104303EB95
S214404670224391B241EA0341BA4545F8041B4FEA4A
S2144046802343EAD25BF828200BEB880382B91A1F33
S21440469093450BD253F8042C42B9083B02E01A6803
S2144046A0043B1AB99B4508F1FF38F8D3C4F810808C
S2144046B0484603B0BDE8F08F002070470000000079
S2144046C02DE9F04F016C97B00446239DCDE90223B7
S2144046D041B1426C4A60012393408B6001F0F8FD83
S2144046E000232364DDE90223002B994636DB0023B2
S2144046F02B60A54B1A4609EA0303934217D0DDE91F
S2144047000267002230463946002303F007F9804608
S21440471000282BD0229A01231360249B002B00F004
S214404720CB809A481860013817B0BDE8F08F229ABF
S21440473042F20F731360029B002B00F0A680944851
S214404740249B002BF0D0C378002B00F0B78000F1FC
S2144047500803249A136017B0BDE8F08F039A01232C
S21440476022F000492B60CDF80C90C2E715AA14AB96
S2144047708DE80C00204632463B4602F01BF85FEAC6
S2144047801955834640F08A80DDF85080159D6FF4B9
S214404790826345449D42C0F297827E4A521B09FA84
S2144047A002F9029A05F2124322FA03F049EA00009F
S2144047B002F0D6FD0123013DA1F1F8710D930022D0
S2144047C0754B02F08FFC6AA3D3E9002302F03EFE4D
S2144047D069A3D3E9002302F087FC064628460F4625
S2144047E002F0CEFD66A3D3E9002302F02FFE024678
S2144047F00B463046394602F077FC06460F4603F035
S214404800BFF83946049000223046002303F090F863
S214404810002840F0A681049B162B00F29F81049A44
S2144048205E4B03EBC203D3E90001DDE9022303F04C
S2144048309DF8002800F04E82049B013B0493002321
S2144048400B93C5EB0805B5F1010A00F1A1810023E1
S2144048500593049B002BC0F292819A440A9300234E
S2144048600893209B092B2BD8052B40F37086043BDE
S21440487020930025209B023B032B00F24E86DFE868
S21440488013F0CC03BE03B2026306414B444AC9F35D
S2144048901300002814BF1846104651E7C7F3130309
S2144048A043F07F51CDF834803046A5F2FF3541F4D1
S2144048B04011DDF8508082E73A4835E7C31C48E7A8
S2144048C0002161642046209101F0DCFC4FF0FF336C
S2144048D00693209A0C930123079021922064099313
S2144048E0159B002BC0F2D280049A0E2A00F3CE808D
S2144048F02A4B03EBC203D3E90089219B002BC0F26D
S2144049008F83DDE9026742464B463046394602F021
S214404910C7FE03F035F8824602F032FD42464B466B
S21440492002F094FD0B4602463946304602F0DAFB6A
S214404930079D0AF130032B70069B012B06460F4657
S21440494005F1010562D00022174B02F07FFD0022E0
S214404950002306460F4602F0E1FF002840F0838021
S214404960CDF808B00594DDF81CB0069C29E000BFE1
S21440497061436F63A787D23FB3C8608B288AC63F20
S214404980FB799F501344D33F0000F07F8987400057
S214404990988740000EFCFFFF0000F83FA8874000C5
S2144049A08C874000888740000000244002F04EFD7F
S2144049B00022002306460F4602F0B0FF002840F0D3
S2144049C0DE8342464B463046394602F069FE02F0E8
S2144049D0D7FF824602F0D4FC42464B4602F036FDF4
S2144049E002460B463046394602F07CFB0AF1300E52
S2144049F005F801EBCBEB050E744506460F464FF027
S214404A000002B54BD2D1DDF808B0059C32463B4695
S214404A103046394602F068FB06460F464046494651
S214404A2032463B4602F084FF48B940464946324645
S214404A303B4602F073FFB0B11AF0010F13D015F8E1
S214404A40018C07996B1E04E08B4200F0408413F8FB
S214404A50018DB8F1390F03F101051A46F4D008F17B
S214404A600103DBB213702046594601F031FC0022A8
S214404A70049B2A70229A01331360249B002B00F07B
S214404A80458307981D6017B0BDE8F08F099A002A45
S214404A9000F08480209A012A40F30483069B5F1E20
S214404AA0089BBB42C0F2A983DF1B069B002BC0F2CB
S214404AB09C84059D069B059A20461A440121059232
S214404AC09A4401F09FFC064665B1BAF1000F09DD35
S214404AD0AA45059A5346A8BF2B46D21A0592ED1A08
S214404AE0C3EB0A0A089B002B1ADD099B002B00F03B
S214404AF07D83002F10DD31463A46204601F026FDE4
S214404B0006465A463146204601F086FC59468046BF
S214404B10204601F0DDFBC346089BDA1B40F0A2822C
S214404B202046012101F06EFC0A9B002B804639DDB1
S214404B3001461A46204601F009FD209B012B80467F
S214404B4040F396824FF00009D8F8103008EB830304
S214404B50186901F009FCC0F120002DE001230B93F9
S214404B606FE6049802F00CFC32463B4602F0D6FE56
S214404B7000287FF450AE049B013B04934BE6059A15
S214404B80049BD21A5B420893002305920A9368E678
S214404B90CAF1000305934FF0000A5AE6089F059DA8
S214404BA0099E91E7209B012B40F3B3824FF000090A
S214404BB00A9B002BC8D10120504410F01F0000F083
S214404BC08180C0F12003042B40F3B884C0F11C0060
S214404BD0059B0344059305448244059B002B05DD55
S214404BE059461A46204601F001FD8346BAF1000FA9
S214404BF005DD41465246204601F0F8FC80460B9BB8
S214404C00002B40F06882069B002B40F39582099B60
S214404C10002B71D1DDF81C90069F4D4602E001F056
S214404C2061FB834641465846FFF7B2FC00F1300C24
S214404C3005F801CBC9EB0503BB42204659464FF069
S214404C400A024FF00003EADB079B069A012AACBF34
S214404C509B1801331D464FF0000A59460122204654
S214404C60CDF808C001F0C2FC4146834601F014FD71
S214404C700028DDF808C040F3F68215F8012C0799A5
S214404C806B1E04E08B4200F0738213F8012D392A24
S214404C9003F10105F6D001321A704146204601F074
S214404CA017FB002E3FF4DFAEBAF1000F05D0B24539
S214404CB003D05146204601F00BFB3146204601F01A
S214404CC007FBD0E61C2083E7044B029A5B1B02FAE4
S214404CD003F06DE50B90B4E500002440EEFBFFFFCB
S214404CE03146002320460A2201F0FCFA0C9B002B9A
S214404CF0064640F30C840693002D05DD31462A46D1
S214404D00204601F073FC0646B9F1000F40F0E982F8
S214404D10B146069B079A013BD3180893029B03F0C3
S214404D2001030993174641465846FFF731FC314682
S214404D300546584601F0B0FC4A4682464146204663
S214404D4001F0CEFCC268034605F1300C002A40F064
S214404D50B88119465846CDF818C0059301F09CFC1A
S214404D60059B02901946204601F0B2FA029ADDF8F9
S214404D7018C02AB9209B1BB9099B002B00F0A783BB
S214404D80BAF1000FC0F2518205D1209B1BB9099B96
S214404D90002B00F04A82002A00F3B782089B87F86F
S214404DA000C007F1010A9F42554600F0BA825946B4
S214404DB00A220023204601F095FA4E4583463146A6
S214404DC020464FF00A024FF0000300F0748101F0D5
S214404DD089FA494606460A222046002301F082FA0E
S214404DE0574681469FE701230993219B002B40F3BA
S214404DF013821F461E460C9306930021172F6164AC
S214404E000AD9012204235B0003F1140087421146AD
S214404E1002F10102F7D26164204601F033FA0E2E09
S214404E20079020643FF65CAD002D3FF459ADDDE9B8
S214404E30022304990029CDE90E2340F32182B74B83
S214404E4001F00F020D1103EBC203E906D3E9006738
S214404E5040F1DB81B24BDDE90E01D3E9082302F0D5
S214404E601FFCCDE9020105F00F054FF003088DB198
S214404E70DFF8AC9230463946EA0705D5D9E9002333
S214404E8008F1010802F0E2FA6D1009F10809F3D1C1
S214404E9006460F46DDE9020132463B4602F000FC7C
S214404EA0CDE902010B9B43B1DDE9020100229D4B97
S214404EB002F03EFD002840F0AC82404602F060FA28
S214404EC0DDE9022302F0C2FA974B002202F00CF909
S214404ED0069B0646A1F15077002B00F06281049BAA
S214404EE0DDF818901293099B002B00F021828B4B23
S214404EF08E4903EBC90353E90223002002F0D0FB9E
S214404F0032463B4602F0EEF8DDE90267CDE9100195
S214404F103946304602F034FD054602F031FA303567
S214404F2002460B463046394602F0DCF85FFA85F812
S214404F30079DDDE9102385F8008006460F460135BB
S214404F4002F0F6FC002840F0B28232463B46002093
S214404F50744902F0C7F802460B46DDE9100102F03C
S214404F6005FD002840F0AC82B9F1010F40F33881CE
S214404F70079BCDF84CA0CDF808B09944DDE910ABBE
S214404F80A0460DE00020674902F0ACF852465B466A
S214404F9002F0CEFC002840F08E824D4500F01B818A
S214404FA0504659460022624B02F050FA0022604BAF
S214404FB082468B463046394602F048FA0F46064649
S214404FC002F0DEFC044602F0DBF902460B463046B1
S214404FD0394602F087F83034E4B252465B4605F86C
S214404FE0014B06460F4602F0A3FC32463B460028DD
S214404FF0C8D0129BDDF808B00493444633E500233E
S2144050000993219B049A13440C930133002B069377
S21440501040F30981069E3746EFE600230993E4E60F
S214405020069B002B3FF76DAC40F062824046002264
S214405030404B494602F00AFADDE9022302F08CFCB6
S214405040DDF818804646002800F08A80219B079DA0
S214405050DB4304934146204601F03AF9002E7FF4A4
S2144050602CAE00E55946204601F070FA834657E5D7
S214405070029B002B7FF466AD039BC3F31303002B08
S2144050807FF494AD039B23F000473F0D3F05002F70
S21440509000F01A82059B013305930AF1010A4FF08E
S2144050A0010985E50D9A002A00F0A58103F23343F5
S2144050B0089F059DFFE401F015F9574606468146D0
S2144050C031E601462046CDF808C001F001F901223C
S2144050D0DDF808C054E65846414601F0DDFA00289F
S2144050E0BFF691AD049F5946002320460A22013F51
S2144050F0049701F0F7F8099B8346002B7FF4F0AD48
S2144051000C9B002B40F3F881069383E50798FFF746
S2144051100BBB029B002B7FF449ADADE7A887400050
S214405120808840000000F03F00001C400000E03F48
S2144051300000244000001440209B022B7FF767AD00
S214405140069B002B82D141460522204601F0CAF834
S21440515080464146584601F09FFA00287FF776AFD2
S214405160049A07993123013204920B704D1C71E763
S214405170049A01320492079A312313708DE5DDF8C4
S21440518008B0059C6FE4404602F0FAF8DDE90223D9
S21440519002F05CF90022BC4B01F0A6FF0646A1F1E6
S2144051A05077DDE902010022B84B01F09BFF324602
S2144051B03B46CDE9020102F0D9FB8046002840F08C
S2144051C0B380324607F10043DDE9020102F0B0FB4E
S2144051D030B146463AE7DDF84CA0DDF808B0444624
S2144051E0DDE90E23CDE90223FFF77ABB5946089A3C
S2144051F0204601F0ABF9834692E4089B0A9A08974A
S214405200FB1A1A440A9200274FE4DDE90E234FF0BA
S2144052100208CDE902232AE6012621960C96069638
S21440522000216164F8E51E46FAE7002A15DD594676
S21440523001222046CDF808C001F0D8F94146834601
S21440524001F02AFA0028DDF808C040F34A81BCF194
S214405250390F00F006810CF1010CB24687F800C009
S2144052607D1C4E4619E504D11CF0010F01D004E523
S214405270154615F8013C302B05F1FF32F8D00CE509
S214405280049B5D42002D00F0BD80814B05F00F026F
S21440529003EBC203D3E90023DDE90E0102F0D6F8A2
S2144052A02D11CDE9020100F02C817A4E4FF0020814
S2144052B0EB0705D5D6E9002308F1010802F0C6F849
S2144052C06D1006F10806F3D1CDE90201EAE5049A2D
S2144052D001320492079A3023137031231370FFF77C
S2144052E0C2BB7168204600F0CDFF33699A1C054664
S2144052F0920006F10C010C3000F0C2FE2046294612
S214405300012201F073F9814603E5BCF1390F00F044
S214405310A8800CF1010CB24687F800C07D1C4E46B2
S214405320BBE4B2464E4698E44FF00008464617E7C0
S214405330574909F1FF3301EBC30132461393D1E9D4
S21440534000013B4602F082F8DDE90267CDE9100134
S2144053503946304602F014FB054602F011F8024684
S2144053600B463046394601F0BDFE079A3035B9F156
S214405370010F157006460F4602F1010523D0079B24
S214405380CDF808A04B445E469A46AB460022424BB8
S21440539002F05CF88946804602F0F2FA074601F0D1
S2144053A0EFFF303702460B464046494601F09AFE2C
S2144053B00BF8017BD345E9D1139BDDF808A0B34633
S2144053C00F4606461D440022344BDDE9100101F02D
S2144053D08BFE32463B4602F0ABFA002847D0129B83
S2144053E0049315F8018CFFF72CBB059B069A9D1A73
S2144053F00023FFF760BB149B089F059DC3F136034F
S214405400FFF759BBDDE90E234FF00208CDE9022332
S21440541048E5069B002B3FF4B6AE0C9D002D7FF76B
S214405420DFAE00221C4BDDE9020102F00FF8064613
S2144054300F4608F10100CDE9026701F0A1FF0246E0
S2144054400B463046394602F001F80F4B002201F079
S2144054504BFE049B013B0646A1F150771293A946AA
S21440546041E53922B2463A704E467D1C07E4DDE9F6
S21440547010230020094901F035FE32463B4602F033
S21440548075FA70B9ACE600BF00001C40000014403E
S214405490A887400080884000000024400000E03F8D
S2144054A0154615F8013C302B05F1FF32F8D0129B1B
S2144054B00493FFF7D8BA4346DDF808B0A0461C462A
S2144054C0129B0493FFF7BDBAB946FFF771BBBCF118
S2144054D0390FC6D0BAF1000F7FF7BFAE05F1310CD9
S2144054E0BBE67FF4BAAE1CF0010F3FF4B6AEAEE6B4
S2144054F04FF000084646A9E5209B022B04DC0C9B97
S21440550002E64FF00208CDE40C9B069318E6209B7B
S214405510022BF9DC0C9BFFF7EEBB002565642946A1
S214405520204600F0AFFE4FF0FF3306930C93012366
S2144055300790219520640993FFF7D2B93FF44DAB0D
S214405540C0F13C00FFF744BB0123099359E5012510
S214405550FFF790B98B899AB22DE9F0410D461107B5
S21440556080463CD46A6843F40063002AAB8165DD1C
S214405570AE6A002E4BD09BB203F48052002192B20A
S214405580D8F80040C8F80010002A5BD02A6D5F07A4
S21440559005D569682B6B521A0BB1EB6BD21A404695
S2144055A0E9690023B047461C56D0AB892A692A6071
S2144055B023F400639BB200226A60DA04AB813BD4DA
S2144055C0296BC8F8004011B305F14003994202D058
S2144055D0404600F06BF900202863BDE8F0812E6954
S2144055E0AEB12C682E6091070CBF6B690023A41BDC
S2144055F0AB600AE0324623466F6AE9694046B847E0
S2144056000028A4EB0004064404DD002CF2DC002055
S214405610BDE8F081AB8943F04003AB814FF0FF30EB
S214405620BDE8F081AB892A69696023F400639BB2C8
S214405630AB81DB042A60C3D52865C1E7EA6B002A44
S21440564096DCE4E701234046E969B047431C02463E
S21440565019D0AB89AE6A9AE7D8F800100029E1D095
S2144056601D2907D0162905D0AB8943F04003AB81EE
S214405670BDE8F081AB892A692A6023F400630022E2
S214405680AB816A609CE7D8F80030002BE1D01D2B38
S21440569007D0162B05D0AB8943F04003AB81BDE85D
S2144056A0F081C8F80040B2E710B5044682B008B1B1
S2144056B0836B53B1B1F90C0008B902B010BD204657
S2144056C002B0BDE81040FFF745BF019100F080F8FA
S2144056D00199EFE7014900F0C1B900BF09704000E9
S2144056E02DE9F04F354B4568C3630024074600F567
S2144056F03B7204230321C0F8E412C0F8E822C0F845
S214405700E04283B02C606C60AC606C66EC812C61CF
S2144057106C61AC61AB81214605F15C000822FDF767
S214405720E5FBBE68DFF898B0DFF898A0DFF8989001
S214405730DFF89880C5F820B001230922C5F824A0D8
S214405740C5F82890C5F82C80ED612146F381B281DA
S21440575006F15C0034607460B460746634617461F1
S214405760B46108220193FDF7C1FBFD68F661122083
S2144057700222C6F820B0C6F824A0C6F82890C6F87C
S2144057802C802146A881EA812C606C60AC606C66F7
S2144057902C616C61AC6105F15C000822FDF7A6FB4C
S2144057A0019BED61C5F820B0C5F824A0C5F8289047
S2144057B0C5F82C80BB6303B0BDE8F08FD5564000DB
S2144057C0D56C4000F96C4000316D4000516D400092
S2144057D0836B03B17047FFF783BF00BF704700BFBE
S2144057E0704700BF38B5084B084DED1AAC1018BFCF
S2144057F0ED1805D0013C55F8043D9847002CF9D1EA
S214405800BDE8384003F05AB8C8884000CC8840000D
S214405810F8B5234F0C46064600F030FDBB685D6881
S21440582025F00305291B01F6EF7121F47F6121F075
S2144058300F01A1F58054B4F5805F07DB30460021A8
S21440584001F036FABB682B44984204D0304600F04C
S21440585017FD0020F8BD3046614201F029FA0130BC
S2144058600DD0104BBA6819682D1B45F0010530461F
S214405870091B5560196000F003FD0120F8BD304655
S214405880002101F015FABA68831A0F2BDEDD064CAC
S2144058900449246843F00103001B53600860D5E7C1
S2144058A074040020F80C00208008002000294ED008
S2144058B02DE9F0410C46804600F0E0FC54F8047CAC
S2144058C0624927F00102A4F10805AB188E685868B3
