:020000040040BA
:10000000D034002029034000250340002503400090
:1000100025034000250340002503400000000000A8
:100020000000000000000000000000002503400068
:100030002503400000000000250340002503400088
:100040002503400025034000250340002503400010
:100050002503400025034000250340002503400000
:10006000250340002503400000000000FD01400082
:1000700011024000250240002503400025034000F6
:1000800000000000000000002503400025034000A0
:1000900025034000250340002503400025034000C0
:1000A00025034000250340002503400025034000B0
:1000B00025034000250340002503400025034000A0
:1000C00025034000250340002503400010B5054CE2
:1000D000237833B9044B13B10448AFF300800123F4
:1000E000237010BD38040020000000006C074000A1
:1000F000084B10B51BB108480849AFF30080084809
:10010000036803B910BD074B002BFBD0BDE81040BE
:10011000184700BF000000006C0740003C040020AE
:100120006C0740000000000010B50E480E4B9847C9
:1001300000203E210D4B98470D4CA0470028FCD0D5
:100140000C4B98470C4A0D4B9A620D4CA047002867
:10015000FCD010200B4B98470B4B98470148024BA3
:10016000984710BD000E2707ED044000A102400093
:10017000F502400005034000013F132000040E403B
:100180001503400039024000D9034000C06C70479D
:10019000806C70472DE9F84381468846124B98479A
:1001A00005464846114B9847054013D0104C04F1C2
:1001B00060062368434508D16168294205D0E36899
:1001C00040469847636825EA0305B44202D01034DC
:1001D000002DEED1074B1B6823B1074B1B680BB1F9
:1001E00048469847BDE8F8838D01400091014000E2
:1001F00058040020C80400205404002008B5024818
:100200000B21024B984708BD000E0E40950140009F
:1002100008B502480C21024B984708BD00100E405B
:100220009501400008B502480D21024B984708BDD2
:1002300000120E4095014000184A136B23F0700322
:1002400018431063936E13F0080F03D009E0013BCD
:1002500003D11EE04FF4006310498A6E12F0080FBC
:10026000F5D00E4A136B23F0030343F0020313632C
:10027000906E10F0080004D000207047013B03D1BD
:1002800009E04FF4006305498A6E12F0080FF5D0BB
:100290007047012070470120704700BF00040E40E6
:1002A00038B111490B6A114A1A40114B13430B62C2
:1002B00070470D4A136A23F45C1323F0030343F4DD
:1002C0005C1343F00103090289B20B431362936E7E
:1002D00013F0010FFBD0044A136A43F09B7343F4FD
:1002E00080331362704700BF00040E40FCFFC8FE5D
:1002F00002003701024B986E00F48030704700BF57
:1003000000040E404FF00052014B9A62704700BF4C
:1003100000040E40024B986E00F00200704700BFD0
:1003200000040E40FEE700BF08B5204B204A9A4269
:1003300013D9204B1D4A9A421FD21146043203336F
:100340009B1A23F003030433194A134452F8040B95
:1003500041F8040B9A42F9D10FE0144B144A9A4227
:100360000BD2144B114A9A1A134881182AB151F82A
:10037000042943F8042D8142F9D100BF0F4B104AE4
:100380009A420BD2131D0F4AD21A22F003021A44CA
:10039000043B002143F8041B9342FBD10A4B0B4A58
:1003A0009A600B4B98470B4B9847FEE700000020E4
:1003B0006C0740003804002068074000CC0400208F
:1003C00038040020CF04002000ED00E000004000D1
:1003D00001064000810540003D4B1B6B03F0030309
:1003E000032B5DD8DFE803F0020E2B2B394B5B6942
:1003F00013F0800F14BF4FF400424FF4FA42364B13
:100400001A604DE0324B1B6A13F0807F03D0334AF1
:10041000314B1A6044E0324A2F4B1A602C4B1B6A56
:1004200003F07003102B02D0202B04D038E02D4AAB
:10043000294B1A6034E0294A274B1A6030E0244BDC
:100440001B6A13F0807F03D0244A234B1A6012E00A
:10045000234A214B1A601E4B1B6A03F07003102BBA
:1004600002D0202B04D006E01E4A1B4B1A6002E08B
:100470001A4A194B1A60164B1B6B03F00303022B2D
:10048000134A07BF936A926AD36AD26A1248C3F3C7
:100490000A41036801FB0333D2B2B3FBF2F30360FA
:1004A0000B4B1B6B03F07003702B07D10A4A1368C8
:1004B0000D49A1FB03135B0813607047044B1A6BD3
:1004C0000549C2F302120B68D3400B60704700BFAE
:1004D00000040E4010140E400C000020001BB7005A
:1004E00000093D0000127A00ABAAAAAA1A4B984252
:1004F00007D84FF08063194A136002F50072136049
:100500007047174B984206D8164B144A136002F5F1
:10051000007213607047144B984206D8134B0F4A71
:10052000136002F5007213607047114B984206D8B1
:10053000104B0A4A136002F50072136070470E4BAD
:10054000984294BF4FF004230C4B044A136002F509
:1005500000721360704700BFFF2C3101000A0E408B
:10056000FF59620200010004FF86930300020004A9
:10057000FFB3C40400030004FFE0F5050005000418
:1005800080B51A4B98474FF40042194B5A60A3F5B7
:100590008253103B0B221A610D221A6103F520636E
:1005A0004FF4002119604FF480121A600020C3F844
:1005B000E40019611A6103F580631A6199461546D2
:1005C00092460C4CDFF834800B4EC9F834A04FF43F
:1005D000002767634046B047276365634046B047DE
:1005E0002563C9F830504046B047EEE72901400086
:1005F00050140E40000E0E400100002037140D0074
:1006000070B50F4E0F4D761BB61018BF002405D0E5
:10061000013455F8043B9847A642F9D10A4E0B4DD8
:10062000761B00F091F8B61018BF002406D00134F4
:1006300055F8043B9847A642F9D170BD70BD00BF84
:1006400054074000540740005C0740005407400036
:10065000024B13B1024800F005B8704700000000DB
:1006600071064000014600200246034600F016B81D
:1006700038B5084B084DED1AAC1018BFED1805D071
:10068000013C55F8043D9847002CF9D1BDE83840AD
:1006900000F064B8680740006C0740002DE9F0479F
:1006A000254C2568D5F84841064688469246994625
:1006B000CCB360681F2818DC431C7EB104EB8005B6
:1006C0000121C5F888A0D4F8887101FA00F2174317
:1006D000022EC4F88871C5F808911ED002306360FC
:1006E00044F820800020BDE8F087144B03B34FF49A
:1006F000C870AFF300800446D0B1D5F84831002768
:1007000080E88800C5F8484138460123C4F888715C
:10071000C4F88C71002EE1D0D0E7D4F88C110A43D4
:10072000C4F88C21DAE705F5A674C5F84841C0E79E
:100730004FF0FF30BDE8F0874407400000000000A4
:100740004300000010000020F8B500BFF8BC08BC52
:100750009E46704751064000F1004000F8B500BFCA
:0C076000F8BC08BC9E467047CD0040006D
:10076C00BFF35F8F0138FBD1704700BF00093D001C
:10077C0000000000FC02002064030020CC030020D9
:10078C00000000000000000000000000000000005D
:10079C00000000000000000000000000000000004D
:1007AC0000000000400740000000000000000000B6
:1007BC00000000000000000000000000000000002D
:1007CC00000000000000000000000000000000001D
:1007DC00000000000000000000000000000000000D
:1007EC0000000000000000000000000000000000FD
:1007FC0000000000000000000000000000000000ED
:10080C0000000000000000000000000000000000DC
:10081C0000000000000000000100000000000000CB
:10082C000E33CDAB34126DE6ECDE05000B00000090
:10083C0000000000000000000000000000000000AC
:10084C00000000000000000000000000000000009C
:10085C00000000000000000000000000000000008C
:10086C00000000000000000000000000000000007C
:04000005004003298B
:00000001FF
