S01E00004750494F5F5245474953545241444F5245535F4C45442E7372656366
S214400000D03400202903400025034000250340004B
S2144000102503400025034000250340000000000063
S2144000200000000000000000000000002503400023
S2144000302503400000000000250340002503400043
S21440004025034000250340002503400025034000CB
S21440005025034000250340002503400025034000BB
S214400060250340002503400000000000FD0140003D
S21440007011024000250240002503400025034000B1
S214400080000000000000000025034000250340005B
S214400090250340002503400025034000250340007B
S2144000A0250340002503400025034000250340006B
S2144000B0250340002503400025034000250340005B
S2144000C025034000250340002503400010B5054C9D
S2144000D0237833B9044B13B10448AFF300800123AF
S2144000E0237010BD3804002000000000F80D4000CA
S2144000F0084B10B51BB108480849AFF300800848C4
S214400100036803B910BD074B002BFBD0BDE8104079
S214400110184700BF00000000F80D40003C040020D7
S214400120F80D40000000000010B50E480E4B9847F2
S21440013000203E210D4B98470D4CA0470028FCD090
S2144001400C4B98470C4A0D4B9A620D4CA047002822
S214400150FCD010200B4B98470B4B98470148024B5E
S214400160984710BD000E2707ED044000A10240004E
S214400170F502400005034000013F132000040E40F6
S2144001801503400039024000D9034000C06C704758
S214400190806C70472DE9F84381468846124B984755
S2144001A005464846114B9847054013D0104C04F17D
S2144001B060062368434508D16168294205D0E36854
S2144001C040469847636825EA0305B44202D0103497
S2144001D0002DEED1074B1B6823B1074B1B680BB1B4
S2144001E048469847BDE8F8838D014000910140009D
S2144001F058040020C80400205404002008B50248D3
S2144002000B21024B984708BD000E0E40950140005A
S21440021008B502480C21024B984708BD00100E4016
S2144002209501400008B502480D21024B984708BD8D
S21440023000120E4095014000184A136B23F07003DD
S21440024018431063936E13F0080F03D009E0013B88
S21440025003D11EE04FF4006310498A6E12F0080F77
S214400260F5D00E4A136B23F0030343F002031363E7
S214400270906E10F0080004D000207047013B03D178
S21440028009E04FF4006305498A6E12F0080FF5D076
S2144002907047012070470120704700BF00040E40A1
S2144002A038B111490B6A114A1A40114B13430B627D
S2144002B070470D4A136A23F45C1323F0030343F498
S2144002C05C1343F00103090289B20B431362936E39
S2144002D013F0010FFBD0044A136A43F09B7343F4B8
S2144002E080331362704700BF00040E40FCFFC8FE18
S2144002F002003701024B986E00F48030704700BF12
S21440030000040E404FF00052014B9A62704700BF07
S21440031000040E40024B986E00F00200704700BF8B
S21440032000040E40FEE700BF08B5204B204A9A4224
S21440033013D9204B1D4A9A421FD21146043203332A
S2144003409B1A23F003030433194A134452F8040B50
S21440035041F8040B9A42F9D10FE0144B144A9A42E2
S2144003600BD2144B114A9A1A134881182AB151F8E5
S214400370042943F8042D8142F9D100BF0F4B104A9F
S2144003809A420BD2131D0F4AD21A22F003021A4485
S214400390043B002143F8041B9342FBD10A4B0B4A13
S2144003A09A600B4B98470B4B9847FEE7000000209F
S2144003B0F80D400038040020F40D4000CC04002026
S2144003C038040020CF04002000ED00E0000040008C
S2144003D0850C4000BD0640003D4B1B6B03F00303FD
S2144003E0032B5DD8DFE803F0020E2B2B394B5B69FD
S2144003F013F0800F14BF4FF400424FF4FA42364BCE
S2144004001A604DE0324B1B6A13F0807F03D0334AAC
S214400410314B1A6044E0324A2F4B1A602C4B1B6A11
S21440042003F07003102B02D0202B04D038E02D4A66
S214400430294B1A6034E0294A274B1A6030E0244B97
S2144004401B6A13F0807F03D0244A234B1A6012E0C5
S214400450234A214B1A601E4B1B6A03F07003102B75
S21440046002D0202B04D006E01E4A1B4B1A6002E046
S2144004701A4A194B1A60164B1B6B03F00303022BE8
S214400480134A07BF936A926AD36AD26A1248C3F382
S2144004900A41036801FB0333D2B2B3FBF2F30360B5
S2144004A00B4B1B6B03F07003702B07D10A4A136883
S2144004B00D49A1FB03135B0813607047044B1A6B8E
S2144004C00549C2F302120B68D3400B60704700BF69
S2144004D000040E4010140E400C000020001BB70015
S2144004E000093D0000127A00ABAAAAAA1A4B98420D
S2144004F007D84FF08063194A136002F50072136004
S2144005007047174B984206D8164B144A136002F5AC
S214400510007213607047144B984206D8134B0F4A2C
S214400520136002F5007213607047114B984206D86C
S214400530104B0A4A136002F50072136070470E4B68
S214400540984294BF4FF004230C4B044A136002F5C4
S21440055000721360704700BFFF2C3101000A0E4046
S214400560FF59620200010004FF8693030002000464
S214400570FFB3C40400030004FFE0F50500050004D3
S2144005800A4B0B221A610D221A6103F520634FF4C1
S214400590002119604FF480121A600020C3F8E4006E
S2144005A019611A6103F580631A61704700040E40B2
S2144005B082B0836B0193104B98420CD1019B0B4148
S2144005C0012B03D18B400C4A536313E001238B402D
S2144005D0094A13630EE0094B98420BD19B6B8B4044
S2144005E0012B03D18B40054A136303E001238B4064
S2144005F0024A536302B0704700120E40000E0E408F
S2144006002DE9F04D0446DFF8B08040461421264ED2
S214400610B047264F38461321B047A2464FEAE47B00
S2144006204FEACB01E20041EA54735D0145EAD265E8
S2144006305401A41A65EB0305AB0143EA9463A20197
S214400640141B63EB050514EB0A0445EB0B052B0165
S21440065043EA14732201121B63EB0503590241EA75
S214400660D251500202460B4643F2AF60002180183A
S214400670594143F2B06200230D4CA04705460D4C4D
S214400680A04738461321B04738461421B04728467D
S214400690A04738461421B04740461421B047284664
S2144006A0A047BDE8F08D00BFB1054000000E0E40EB
S2144006B0E90640000100002000120E4008B5064B37
S2144006C098474FF40042054B5A60054B98476425BF
S2144006D0044C2846A047FCE72901400050140E4031
S2144006E0810540000106400053B94AB9002908BFB9
S2144006F000281CBF4FF0FF314FF0FF3000F03CB8F1
S21440070082B0EC462DE9005000F01EF8DDF804E01B
S21440071002B00CBC704700BF2DE9F041069C154660
S21440072006460F46984600F029F805FB01F300FB05
S2144007300838A5FB0023B21A434467EB0303C4E919
S2144007400023BDE8F08100BF2DE9F041069C9046AD
S21440075006460F461D4600F05FF900FB05F5A0FB78
S214400760082308FB0155B21A2B4467EB0303C4E980
S2144007700023BDE8F08100BF704700BF00292DE987
S214400780F043C0F2A6800026002BC0F29C8088462C
S21440079094469E46154604460F46002B3DD18A4257
S2144007A059D9B2FA82F33BB1C3F120029F4020FAF6
S2144007B002F29D4017439C40290C220CB7FBF1FEE9
S2144007C0A8B201FB1E7742EA074700FB0EF3BB4286
S2144007D00AD97F190EF1FF3280F00581BB4240F204
S2144007E00281AEF1020E2F44FF1AA4B2B7FBF1F31A
S2144007F001FB137744EA074700FB03F0B84208D9E9
S2144008007F1903F1FF3280F0F080B84240F2ED806D
S214400810023B43EA0E43002203E08B420FD90022FC
S2144008201346341C18BF012460424FF0000565EBA8
S21440083045015840514000196941BDE8F083B3FA7C
S21440084083F2002A40F086808B4202D3844500F231
S214400850DB800123E5E712B90123B3FBF2F5B5FAD5
S21440086085F000283BD1781B4FEA154E1FFA85FCD1
S2144008700122B0FBFEF8210C0EFB180741EA0747A1
S2144008800CFB08F3BB4207D97F1908F1FF3102D2AF
S214400890BB4200F2BD808846FF1AA4B2B7FBFEF307
S2144008A00EFB137744EA07470CFB03FCBC4507D90D
S2144008B07F1903F1FF3102D2BC4500F2A7800B46F8
S2144008C043EA0843ADE752426FEA060663EB43034A
S2144008D05DE7404261EB41014FF0FF3654E7C0F11F
S2144008E0200224FA02F107FA00F385404FEA154E3B
S2144008F0D7401943B7FBFEF20B0C0EFB12771FFADC
S21440090085FC43EA07430CFB02F79F4204FA00F4D7
S21440091007D95B1902F1FF3074D29F4272D9023A6E
S2144009202B44DF1B89B2B7FBFEF80EFB187341EA77
S21440093003430CFB08F79F4208D95B1908F1FF31C7
S2144009405CD29F425AD9A8F102082B44D81B48EAE9
S21440095002428EE7C2F120032CFA03F10EFA02FEA1
S21440096020FA03F741EA0E0E08FA02F028FA03F1DD
S2144009704FEA1E453843B1FBF5F8030C05FB18114A
S2144009801FFA8EF743EA014107FB08F38B420CFA45
S21440099002FC09D911EB0E0108F1FF3930D28B4227
S2144009A02ED9A8F102087144C91A80B2B1FBF5F3FA
S2144009B005FB131140EA014107FB03F78F4208D9B4
S2144009C011EB0E0103F1FF3016D28F4214D9023BD1
S2144009D0714443EA0843C91BA3FB0C89494509D324
S2144009E005D000221DE79646FEE6134611E79440E2
S2144009F04445F6D2013BF4E70346EAE78846A5E7D6
S214400A00C846D1E702468CE713460AE7023B57E75B
S214400A10A8F102082F443FE72DE9F041002B44D1CE
S214400A208A42154604464FD9B2FA82F70E464FB16F
S214400A30C7F12003B94020FA03F602FA07F50E4341
S214400A4000FA07F44FEA154E230CB6FBFEF0AFB2A1
S214400A500EFB106143EA014307FB00F1994209D9B6
S214400A605B1900F1FF3280F0EC80994240F2E98059
S214400A7002382B445A1AA4B2B2FBFEF30EFB1322E2
S214400A8044EA024207FB03F7974208D9521903F19A
S214400A90FF3180F0D880974240F2D580023B43EA4F
S214400AA0004000263146BDE8F0818B4247D8B3FA75
S214400AB083F6002E48D18B4202D3824200F2CD808C
S214400AC001203146BDE8F08112B90125B5FBF2F5AB
S214400AD0B5FA85F8B8F1000F77D14A1B4FEA154EA4
S214400AE0AFB20126B2FBFEF0230C0EFB102143EA08
S214400AF0014107FB00F38B4207D9491900F1FF3249
S214400B0002D28B4200F2BA801046C91AA4B2B1FB98
S214400B10FEF30EFB131144EA014407FB03F7A7421A
S214400B2008D9641903F1FF3280F08F80A74240F263
S214400B308C80023B43EA00403146BDE8F081002607
S214400B4030463146BDE8F081C6F1200422FA04F56D
S214400B50B3402B4320FA04FC01FA06F721FA04F5C9
S214400B604FEA134E4CEA0707B5FBFEF8390C0EFB6E
S214400B7018551FFA83FC41EA05450CFB08F1A942CB
S214400B8002FA06F204D9ED1808F1FF3467D3A046FE
S214400B906D1ABFB2B5FBFEF40EFB145547EA05418D
S214400BA00CFB04FC8C4504D9C91804F1FF355CD312
S214400BB02C4644EA0844CCEB0101A4FB02239942AC
S214400BC048D344D0204600266CE7C8F1200401FAFA
S214400BD008F305FA08F520FA04F7E1404FEA154E07
S214400BE01F43B1FBFEF63A0C0EFB16111FFA85FCAE
S214400BF042EA01430CFB06F29A4200FA08F407D98F
S214400C005B1906F1FF3137D29A4235D9023E2B4462
S214400C109B1ABFB2B3FBFEF00EFB103347EA03430A
S214400C200CFB00F1994207D95B1900F1FF3221D243
S214400C3099421FD902382B445A1A40EA064667465C
S214400C4050E7104616E70B4629E7134672E7B040D2
S214400C509042B7D2601E002624E7304622E7A942DB
S214400C6095D9A8F102081D4492E78C45A0D9023CCC
S214400C7019449EE71046DFE70E46C9E70238294486
S214400C8043E700BF70B50F4E0F4D761BB61018BF2A
S214400C90002405D0013455F8043B9847A642F9D1C4
S214400CA00A4E0B4D761B00F091F8B61018BF002484
S214400CB006D0013455F8043B9847A642F9D170BD9A
S214400CC070BD00BFD80D4000D80D4000E00D40007C
S214400CD0D80D4000024B13B1024800F005B87047EB
S214400CE000000000F50C4000014600200246034686
S214400CF000F016B838B5084B084DED1AAC1018BFC2
S214400D00ED1805D0013C55F8043D9847002CF9D124
S214400D10BDE8384000F064B8EC0D4000F00D4000EF
S214400D202DE9F047254C2568D5F8484106468846C3
S214400D3092469946CCB360681F2818DC431C7EB1A7
S214400D4004EB80050121C5F888A0D4F8887101FA23
S214400D5000F21743022EC4F88871C5F808911ED0D9
S214400D600230636044F820800020BDE8F087144BD2
S214400D7003B34FF4C870AFF300800446D0B1D5F843
S214400D804831002780E88800C5F8484138460123A6
S214400D90C4F88871C4F88C71002EE1D0D0E7D4F83E
S214400DA08C110A43C4F88C21DAE705F5A674C5F819
S214400DB04841C0E74FF0FF30BDE8F087C80D40001F
S214400DC0000000004300000010000020F8B500BFFF
S214400DD0F8BC08BC9E467047D50C4000F100400069
S214400DE0F8B500BFF8BC08BC9E467047CD00400032
S20C400DF08CF9FF7F01000000B2
S214400DF8BFF35F8F0138FBD1704700BF00093D0045
S214400E0800000000FC02002064030020CC03002001
S214400E180000000000000000000000000000000085
S214400E280000000000000000000000000000000075
S214400E3800000000C40D4000000000000000000054
S214400E480000000000000000000000000000000055
S214400E580000000000000000000000000000000045
S214400E680000000000000000000000000000000035
S214400E780000000000000000000000000000000025
S214400E880000000000000000000000000000000015
S214400E980000000000000000000000000000000005
S214400EA800000000000000000100000000000000F4
S214400EB80E33CDAB34126DE6ECDE05000B000000B9
S214400EC800000000000000000000000000000000D5
S214400ED800000000000000000000000000000000C5
S214400EE800000000000000000000000000000000B5
S214400EF800000000000000000000000000000000A5
S8044003298F
