:020000040040BA
:10000000C8340020110C4000D90C4000D90C40002D
:10001000D90C4000D90C4000D90C40000000000071
:10002000000000000000000000000000D90C4000AB
:10003000D90C400000000000D90C4000D90C400051
:10004000D90C4000D90C4000D90C4000D90C40001C
:10005000D90C4000D90C4000D90C4000D90C40000C
:10006000D90C4000D90C400000000000FD07400002
:10007000150840002D084000D90C4000D90C400064
:100080000000000000000000D90C4000D90C400026
:10009000D90C4000D90C4000D90C4000CD104000D4
:1000A000D90C4000D90C4000D90C4000D90C4000BC
:1000B000D90C4000D90C4000D90C4000D90C4000AC
:1000C000D90C4000D90C4000D90C400010B5054CAB
:1000D000237833B9044B13B10448AFF300800123F4
:1000E000237010BD300400200000000038144000D0
:1000F000084B10B51BB108480849AFF30080084809
:10010000036803B910BD074B002BFBD0BDE81040BE
:10011000184700BF000000003814400034040020DD
:10012000381440000000000080B582B000AF786055
:100130007B68072B30D801A252F823F099014000C8
:100140005D014000650140006D0140007501400007
:100150007D014000850140008F0140000020104BD0
:10016000984719E001200E4B984715E000200D4BF1
:10017000984711E010200B4B98470DE02020094BC9
:10018000984709E000203E21074B984704E00120F2
:100190003E21054B984700BF0837BD4680BD00BFD4
:1001A000C908400035094000A509400080B582B06B
:1001B00000AF78607B68072B26D801A252F823F0A5
:1001C000E1014000E5014000E5014000F701400089
:1001D000F7014000F7014000F7014000F70140003F
:1001E000012312E00B4B98470346002B14BF012359
:1001F0000023DBB209E0084B98470346002B14BFED
:1002000001230023DBB200E0002318460837BD4677
:1002100080BD00BF010940001D0A400080B483B0CA
:1002200000AF78607B68072B25D801A252F823F035
:1002300051024000570240005D024000630240004E
:10024000670240006B0240006F02400073024000F2
:100250004FF4FA4310E04FF400430DE04FF4004335
:100260000AE0084B08E0084B06E0084B04E0074BA7
:1002700002E0064B00E0002318460C37BD465DF84F
:10028000047B704700093D0000127A00001BB70094
:1002900080B582B000AF0346FB7100BFFB79184602
:1002A000054B9847034683F00103DBB2002BF5D1E1
:1002B0000837BD4680BD00BFAD01400080B586B0A7
:1002C00000AFF8607A603B600B46FB72FB7A184621
:1002D0000D4B984702467B68B2FBF3F37B617B6969
:1002E0003A6802FB03F37B613B68013B1A04074B4E
:1002F00013407A68D2B2134343F47C52FB681A600D
:100300001837BD4680BD00BF1D0240000000FF073A
:1003100080B582B000AF786039603B68002B08D1AF
:10032000084B9847084A7B681B6843F00053936268
:1003300005E0064B9847044A7B681B68D362083780
:10034000BD4680BD390A400000040E406D0A4000E1
:1003500080B582B000AF78607B68002B03D1054B7D
:100360009847034602E0044B98470346184608376F
:10037000BD4680BD510A4000850A400080B582B06C
:1003800000AF0346FB71FB79033B042B08D8FB79D4
:100390001846054B9847FB791846044B984700E0F0
:1003A00000BF0837BD4680BD2901400091024000D2
:1003B00080B582B000AF786000BF7868044B984782
:1003C0000346002BF9D0002318460837BD4680BDF0
:1003D0005103400080B500AF0620044B9847024609
:1003E00013469B0013449B00184680BD1D0240002D
:1003F00080B500AF024B984703465B08184680BDA6
:10040000D503400090B583B000AF1148114B984719
:100410000620114B98473B1D184606210122142344
:100420000E4CA0473B1D184600210D4B984700205D
:100430000C4B984710200C4B98470C4B98470C4B93
:10044000984703461846034B98470C37BD4690BD66
:10045000000E27077D0E40007D034000BD024000D6
:1004600011034000B103400045084000E10C40008A
:10047000F103400080B485B000AFF860B9607A60E5
:100480007B68002B03D0FB68BA685A6602E0FB6801
:10049000BA681A661437BD465DF8047B704700BF22
:1004A00080B485B000AFF860B9607A60FB68BA6864
:1004B000C3F884207B685B004FF40042B2FBF3F387
:1004C000013BC3F30D02FB68C3F88C201437BD4613
:1004D0005DF8047B704700BF80B483B000AF7860E4
:1004E00039607B683A681A630C37BD465DF8047B57
:1004F000704700BF80B483B000AF786039607B681C
:100500003A685A630C37BD465DF8047B704700BFFC
:1005100080B584B000AFF860B9607A60F868B968F7
:10052000184B98477B6803F00103F868B9681A46CE
:10053000154B98477B6803F00A03002B03D0FB6838
:10054000BA681A6202E0FB68BA685A627B6803F014
:100550000203002B04D0FB68BA68C3F8802008E0CF
:100560007B6803F00803002B03D0FB68BA68C3F86C
:100570008420FB68BA685A61FB68BA681A60103751
:10058000BD4680BD7D0640007504400080B584B046
:1005900000AFF860B9607A603B60F868B968124BE8
:1005A0009847F868B968BA69104B98473B68002BC0
:1005B00003D0FB68BA681A6502E0FB68BA685A653E
:1005C0007B68002B03D0FB68BA681A6302E0FB6803
:1005D000BA685A63FB68BA681A61FB68BA681A603D
:1005E0001037BD4680BD00BF7D0640007504400049
:1005F00080B485B000AFF860B9607A607B6803F0C2
:100600001003002B20D0FB68BA68C3F8B0207B68C9
:1006100003F02003002B04D0FB68BA68C3F8D42091
:1006200003E0FB68BA68C3F8D0207B6803F040039E
:10063000002B04D0FB68BA68C3F8C02008E0FB6850
:10064000BA68C3F8C42003E0FB68BA68C3F8B420F2
:100650001437BD465DF8047B704700BF80B483B09B
:1006600000AF786039607B68DB6C7B683A681A643D
:100670000C37BD465DF8047B704700BF80B483B083
:1006800000AF786039607B683A685A640C37BD46C1
:100690005DF8047B704700BF80B483B000AF786022
:1006A0007B68DB6C18460C37BD465DF8047B7047F1
:1006B00080B483B000AF78607B689B6C18460C37C1
:1006C000BD465DF8047B704780B584B000AF7860AC
:1006D000396078682A4B9847F8607868294B9847C2
:1006E0000246FB681340FB60FB68002B38D00023F8
:1006F000BB6032E0244ABB681B0113441A683B68A4
:100700009A4223D1204ABB681B0113445A68FB68F4
:100710001340002B1AD01C4ABB681B01134408333A
:100720005B681949BA6812010A4410681649BA6828
:1007300012010A44526811469847134ABB681B01CC
:1007400013445B68DB43FA681340FB60BB6801330A
:10075000BB60BB68062B00D902E0FB68002BC9D147
:100760000A4B1B68002B07D0094B1B68002B03D0DA
:10077000074B1B68786898471037BD4680BD00BF9F
:1007800099064000B10640004C040020C40400203B
:10079000C004002080B586B000AFF860B9607A6010
:1007A0003B60134B1B68062B01D901231CE0104B47
:1007B0001B681B010F4A13447B617B69BA681A608E
:1007C0007B697A685A607B693A689A607B693A6AA1
:1007D000DA60074B1B680133054A1360F8687968D3
:1007E0003A68054B9847002318461837BD4680BD28
:1007F000BC0400204C040020F105400080B500AF8F
:1008000002480B21024B984780BD00BF000E0E40EE
:10081000C906400080B500AF02480C21024B984742
:1008200080BD00BF00100E40C906400080B500AF7B
:1008300002480D21024B984780BD00BF00120E40B8
:10084000C906400080B485B000AF78601D491D4BDB
:100850001B6B23F070027B6813430B634FF4006340
:10086000FB6007E0FB68002B01D1012323E0FB685C
:10087000013BFB60134B9B6E03F00803002BF1D090
:10088000104A104B1B6B23F0030343F00203136366
:100890004FF40063FB6007E0FB68002B01D10123EC
:1008A00009E0FB68013BFB60064B9B6E03F008030D
:1008B000002BF1D0002318461437BD465DF8047BA9
:1008C000704700BF00040E4080B483B000AF786072
:1008D0007B68012B07D1084A074B9B6843F02543EF
:1008E00043F480139360044B044A1A600C37BD46EE
:1008F0005DF8047B704700BF10140E40080000A58F
:1009000080B400AF094B5B6903F08003002B07D074
:10091000074B9B6E03F08003002B01D0012300E006
:1009200000231846BD465DF8047B704710140E4046
:1009300000040E4080B483B000AF7860184A184BB2
:100940001B6A43F45C1343F00803136200BF144BAB
:100950009B6E03F40033002BF9D01149104B1B6A36
:1009600023F45C1323F070037A68134343F45C139D
:100970000B6200BF0A4B9B6E03F40033002BF9D0CF
:10098000074A074B1B6A23F09B7323F4803343F41D
:100990005C1313620C37BD465DF8047B704700BFE3
:1009A00000040E4080B483B000AF786039607B688B
:1009B000002B08D01649164B1B6A164A1A40164BD4
:1009C00013430B621EE01249114B1B6A23F45C13A4
:1009D00023F003033A68120292B2134343F45C1308
:1009E00043F001030B6200BF094B9B6E03F0010350
:1009F000002BF9D0064A064B1B6A43F09B7343F465
:100A0000803313620C37BD465DF8047B704700BF2E
:100A100000040E40FCFFC8FE0200370180B400AFA6
:100A2000044B9B6E03F480331846BD465DF8047B8F
:100A3000704700BF00040E4080B400AF034B4FF07E
:100A400000529A62BD465DF8047B704700040E4078
:100A500080B400AF044B9B6E03F002031846BD4602
:100A60005DF8047B704700BF00040E4080B400AF07
:100A7000034B0022DA62BD465DF8047B704700BF7D
:100A800000040E4080B400AF044B9B6E03F00403DF
:100A90001846BD465DF8047B704700BF00040E4059
:100AA00080B483B000AF78607B68222B01D901232A
:100AB0002FE07B681F2B13D8194B9A697B680121A3
:100AC00001FA03F31A407B68012101FA03F39A4209
:100AD0001ED0134A7B68012101FA03F3136117E06A
:100AE0007B68203B7B600E4BD3F808217B6801219B
:100AF00001FA03F31A407B68012101FA03F39A42D9
:100B000006D0074A7B68012101FA03F3C2F80031DD
:100B1000002318460C37BD465DF8047B704700BFC4
:100B200000040E4080B487B000AFF860B9607A600E
:100B3000BB689B01FA6813447B617B6902221A60DF
:100B40007B694FF0FF329A627B691B6A7B697A6826
:100B50005A601C37BD465DF8047B704780B483B093
:100B600000AF786039607A683B689B0113440522C6
:100B70001A600C37BD465DF8047B704780B483B0C3
:100B800000AF786039607A683B689B011344183382
:100B90005B6818460C37BD465DF8047B704700BFA4
:100BA00080B485B000AFF860B9607A60FA68BB685D
:100BB0009B01134418337A685A601437BD465DF8B8
:100BC000047B704780B487B000AFF860B9607A608A
:100BD000BB689B01FA6813447B617B697A685A623F
:100BE0001C37BD465DF8047B704700BF80B485B0FC
:100BF00000AF786039603B689B017A681344FB6002
:100C0000FB681B6A18461437BD465DF8047B7047C5
:100C100080B584B000AF274BFB60274BBB60FA6800
:100C2000BB689A420DD907E0BB681A1DBA60FA6822
:100C3000111DF96012681A60BB68204A9342F3D311
:100C400020E0FA68BB689A421CD21C4A1A4BD31A9D
:100C50007B60FA687B681344043BFB60BA687B687E
:100C60001344043BBB600AE0BB681A1FBA60FA6811
:100C7000111FF96012681A607B68043B7B607B6817
:100C8000002BF1D100BF0E4BBB6004E0BB681A1D06
:100C9000BA6000221A60BB680A4A9342F6D30A4B34
:100CA000FB600A4AFB689360094B9847094B9847D9
:100CB000FEE700BF38144000000000203004002090
:100CC00030040020C80400200000400000ED00E0D7
:100CD000CD1240009912400080B400AFFEE700BF83
:100CE00080B400AF5D4B1B6B03F00303032B00F2DA
:100CF000968001A252F823F0090D4000290D400012
:100D0000730D4000730D4000554B5B6903F0800389
:100D1000002B04D0534B4FF400421A6080E0514B3B
:100D20004FF4FA421A607BE04C4B1B6A03F080736D
:100D3000002B03D04B4B4C4A1A6019E0494B4B4AED
:100D40001A60464B1B6A03F07003102B08D0202B4F
:100D50000AD0002B00D00BE0424B444A1A6007E057
:100D6000404B434A1A6003E03E4B3F4A1A6000BFC3
:100D700056E03A4B1B6A03F08073002B03D0394BCB
:100D8000394A1A6019E0374B384A1A60334B1B6AEC
:100D900003F07003102B08D0202B0AD0002B00D0BA
:100DA0000BE0304B314A1A6007E02E4B304A1A6094
:100DB00003E02C4B2C4A1A6000BF284B1B6B03F03E
:100DC0000303022B15D1254B9A6A2A4B13401B0CA7
:100DD0000133244A126802FB03F3224A13601F4BBB
:100DE0009B6ADBB21F4A1268B2FBF3F31D4A136021
:100DF00016E01A4BDA6A1F4B13401B0C0133194AD9
:100E0000126802FB03F3174A1360144BDB6ADBB270
:100E1000144A1268B2FBF3F3124A136000E000BFF9
:100E20000E4B1B6B03F07003702B08D10D4B1B682E
:100E3000114AA2FB03235B080A4A136009E0074B2F
:100E40001B6B03F070031A09064B1B68D340054A5D
:100E50001360BD465DF8047B704700BF00040E4080
:100E600010140E4000000020001BB70000093D00D8
:100E700000127A000000FF07ABAAAAAA80B483B0D0
:100E800000AF78607B68224A934208D8214B4FF02C
:100E900080621A60204B4FF080621A6033E07B68FA
:100EA0001E4A934206D81B4B1D4A1A601A4B1C4A15
:100EB0001A6028E07B681B4A934206D8154B1A4AF1
:100EC0001A60154B184A1A601DE07B68174A934256
:100ED00006D8104B164A1A600F4B154A1A6012E0DA
:100EE0007B68144A934208D80A4B4FF004221A60D8
:100EF000094B4FF004221A6005E0064B0E4A1A60B7
:100F0000054B0D4A1A600C37BD465DF8047B7047EF
:100F1000FF2C3101000A0E40000C0E40FF59620206
:100F200000010004FF86930300020004FFB3C40421
:100F300000030004FFE0F5050005000480B483B061
:100F400000AF0346FB71084997F907305B09FA794E
:100F500002F01F02012000FA02F241F823200C37B0
:100F6000BD465DF8047B704700E100E080B483B0CB
:100F700000AF03463960FB7197F90730002B0BDA9D
:100F80000D49FB7903F00F03043B3A68D2B212011A
:100F9000D2B20B441A7609E0084997F907303A684B
:100FA000D2B21201D2B20B4483F800230C37BD46F3
:100FB0005DF8047B704700BF00ED00E000E100E059
:100FC00080B483B000AF78607B68072B25D801A27E
:100FD00052F823F0F50F4000FB0F400001104000D5
:100FE000071040000B1040000F104000131040008D
:100FF000171040004FF4FA4310E04FF400430DE0A7
:101000004FF400430AE0084B08E0084B06E0084BA9
:1010100004E0074B02E0064B00E0002318460C37C3
:10102000BD465DF8047B704700093D0000127A0060
:10103000001BB70080B500AF0620044B984702465E
:1010400013469B0013449B00184680BDC10F40000F
:1010500080B500AF024B984703465B08184680BD39
:101060003510400080B582B000AF78603960074825
:101070000021074B9847034603F6AA2303480021A3
:101080001A46044B98470837BD4680BD0000014012
:101090007D0B4000A10B400080B582B000AF7860AE
:1010A000396007480021074B98470346A3F6AA2357
:1010B000034800211A46044B98470837BD4680BDB7
:1010C000000001407D0B4000A10B400080B582B0C4
:1010D00000AF0E4800210E4B984703467B607B68AB
:1010E0000C4B9B6B1B0D03F00103002B05D1094832
:1010F0004FF48011084B984704E006484FF48011E4
:10110000064B98470837BD4680BD00BF0000014030
:10111000ED0B4000000E0E40D9044000F5044000E5
:1011200090B583B002AF0C20224B98470D20214B85
:101130009847214808210922204B984720484FF41E
:10114000805109221D4B98471B48082164221D4BE2
:1011500098471B484FF4805164221A4B98471A4B0A
:10116000009315480C2108225023184CA047184B17
:10117000009313480D214FF480525023134CA04785
:101180000D480821134B98470D484FF48051114BDF
:1011900098470C200A21104B98470D200A210E4B2E
:1011A00098470C200D4B98470D200C4B984704375F
:1011B000BD4690BDA10A400000100E401105400040
:1011C00000120E40A1044000651040009507400049
:1011D000991040005D0640006D0F40003D0F40003B
:1011E00090B583B002AF002300930E484FF4002166
:1011F000012200230C4CA0470023009309484FF420
:10120000801101220023084CA047002300930748C7
:101210004FF4801101220023034CA0470437BD4640
:1012200090BD00BF000E0E408D05400000120E4024
:1012300080B582B000AF104B9847786017200F4BF5
:1012400098470F48002144F204020E4B98470C487F
:1012500000214FF400520C4B984717200B4B984736
:101260000748002110220A4B984705480021094BE6
:1012700098470837BD4680BD51104000A10A400084
:1012800000000140250B4000A10B40003D0F400035
:10129000C50B40005D0B400080B500AF064B984782
:1012A000064B4FF400425A60054B9847054B984750
:1012B000054B9847FEE700BF0504400050140E4060
:1012C000E1114000311240002111400070B50F4E75
:1012D0000F4D761BB61018BF002405D0013455F809
:1012E000043B9847A642F9D10A4E0B4D761B00F0FD
:1012F00091F8B61018BF002406D0013455F8043B0D
:101300009847A642F9D170BD70BD00BF20144000BF
:10131000201440002814400020144000024B13B158
:10132000024800F005B87047000000003D1340007F
:10133000014600200246034600F016B838B5084BB7
:10134000084DED1AAC1018BFED1805D0013C55F84A
:10135000043D9847002CF9D1BDE8384000F064B84E
:1013600034144000381440002DE9F047254C25681E
:10137000D5F848410646884692469946CCB36068FF
:101380001F2818DC431C7EB104EB80050121C5F841
:1013900088A0D4F8887101FA00F21743022EC4F82D
:1013A0008871C5F808911ED00230636044F820802F
:1013B0000020BDE8F087144B03B34FF4C870AFF3BF
:1013C00000800446D0B1D5F84831002780E8880075
:1013D000C5F8484138460123C4F88871C4F88C71B7
:1013E000002EE1D0D0E7D4F88C110A43C4F88C2148
:1013F000DAE705F5A674C5F84841C0E74FF0FF30BD
:10140000BDE8F08710144000000000004300000019
:1014100008000020F8B500BFF8BC08BC9E46704725
:101420001D134000F1004000F8B500BFF8BC08BC37
:081430009E467047CD0040000C
:1014380000093D000000000000000000F402002048
:101448005C030020C403002000000000000000002E
:101458000000000000000000000000000000000084
:101468000000000000000000000000000C14400014
:101478000000000000000000000000000000000064
:101488000000000000000000000000000000000054
:101498000000000000000000000000000000000044
:1014A8000000000000000000000000000000000034
:1014B8000000000000000000000000000000000024
:1014C8000000000000000000000000000000000014
:1014D8000000000000000000000000000000000004
:1014E80001000000000000000E33CDAB34126DE6A1
:1014F800ECDE05000B00000000000000000000000A
:1015080000000000000000000000000000000000D3
:1015180000000000000000000000000000000000C3
:1015280000000000000000000000000000000000B3
:1015380000000000000000000000000000000000A3
:0400000500400C119A
:00000001FF
